:100000000C94FE020C9445030C9445030C94450398
:100010000C9445030C9445030C9445030C94450340
:100020000C9445030C9445030C94AB2C0C947D2D3F
:100030000C94E1240C9445030C9445030C94450363
:100040000C9445030C9445030C9445030C94450310
:100050000C9445030C9456250C9445030C944503CD
:100060000C9445030C9445030C9445030C944503F0
:100070000C9445030C9445030C9445030C944503E0
:100080000C9445030C9445030C9445030C944503D0
:100090000C9445030C9445030C9445030C944503C0
:1000A0000C9445030C9445030C944503DF12E812AD
:1000B000ED12F212F712FC12011306130B131013B8
:1000C00015131A131F13241329132E133313381364
:1000D0003D13421347134C13511356135B13601314
:1000E00065136A136F13741379137E1383138813C4
:1000F0008D1392139713351538153D154415491571
:100100004E15531558155D15621567156C156E154E
:100110007015721578157815781578157815BC1A3C
:10012000BC1AEE1AEE1A3B1B591B7A1C7A1C641B74
:10013000F91B0A1C0A1C6A1C7A1C7A1C731C1A1DE7
:100140001A1D2C1D2C1D231D2C1D2C1D2C1D1A1D94
:100150001A1D281D2C1D2C1D281DEA2D112E092FBE
:10016000112E092F5D2E802E092FD72EE62E294520
:1001700014001A000800150017001C0018000C00DD
:10018000120013002A002B44040016000700090087
:100190000A000B000D000E000F0033003400E100D8
:1001A0001D001B000600190005001100100036009C
:1001B000370038002800E000E300E2003545015137
:1001C0002C00000002515000510052004F00350039
:1001D0001E001F0020002100220023002400250013
:1001E000260027004C004C002F000000560057004E
:1001F000260227022D002E002F00300031000100C2
:100200003602000000002D022F0230024A024D0289
:10021000000037020100010001000100010001009F
:100220000100000003514A004E004B004D00350212
:100230001E021F02200221022202230224022502A2
:10024000260227024C004C003A003B003C003D00D7
:100250003E003F002D022E022F023002310201002B
:1002600040004100420043004400450000000000FF
:100270002F003000010001000100010001000351C6
:10028000010000000100A800AA00A900AB000000C6
:10029000005C015CC35CC45CC65CC75CC85CC95CD8
:1002A000CA5CCB5C00000000000000000000000001
:1002B00000000000BC5CBD5CBE5CBE5C00000000D9
:1002C000000000000000000000000000000000002E
:1002D000000000000000000000000000000000001E
:1002E000000000000000000000000000000000000E
:1002F0000000000000000000000000005F0060003F
:10030000610056005500000000000000F600F400F7
:10031000000000005C005D005E005700540000001B
:10032000000000000000F5000000000059005A0025
:100330005B006700280000000000000000000000D3
:1003400000000000620063000000000000000000E8
:100350004C020000000000000000000000005200FD
:1003600000000000B90000000000000000000000D4
:1003700000000000500051004F000000000000008D
:100380000000000000000000000000000000B600B7
:1003900000000000B70000000000000000000000A6
:1003A000000000000000FB00FA00F900FC00000162
:1003B0000101010101010101020202020202020225
:1003C00002030303030303030304040404040404F7
:1003D00005050505050606060606070707070708BB
:1003E000080808090909090A0A0A0B0B0B0C0C0C6E
:1003F0000D0D0D0E0E0E0F0F0F1010111111121208
:1004000013131414151516161717181819191A1A84
:100410001B1B1C1D1D1E1E1F2020212222232424E5
:10042000252626272829292A2B2C2D2D2E2F303121
:100430003232333435363738393A3B3C3D3E3F4033
:100440004142434445464748494A4C4D4E4F50511E
:100450005354555658595A5B5D5E5F6162646566D8
:1004600068696B6C6D6F7072737577787A7B7D7E5F
:100470008082838587888A8C8E8F91939596989AAF
:100480009C9EA0A2A3A5A7A9ABADAFB1B3B5B7BAC7
:10049000BCBEC0C2C4C6C9CBCDCFD1D4D6D8DBDD9B
:1004A000DFE2E4E7E9EBEEF0F3F5F8FAFDFF220313
:1004B00042004D0034003000200048006F007400FE
:1004C0007300770061007000200052004700420076
:1004D000000016034B0050005200650070007500CC
:1004E00062006C0069006300000004030904090253
:1004F0003B00020100A0FA09040000010301010011
:100500000921110100012240000705810308000AAA
:10051000090401000103000000092111010001226A
:1005200081000705820320000A120110010000006B
:1005300008504B303401000102000105010902A1FD
:100540000185020901A100050919012905150025E8
:100550000195057501810295017503810105010968
:100560003009311581257F950275088106093815F6
:1005700081257F950175088106050C0A38021581D1
:10058000257F950175088106C0C005010980A1017C
:10059000850319012AB700150126B70095017510CA
:1005A0008100C0050C0901A101850419012AA002DE
:1005B000150126A002950175108100C005010906EC
:1005C000A101050719E029E7150025019508750126
:1005D00081029501750881010507190029FF1500A1
:1005E00026FF009506750881000508190129059563
:1005F0000575019102950175039101C011241FBE7B
:10060000CFEFDAE0DEBFCDBF04B603FE27C0809196
:10061000300490913104A0913204B09133048730BA
:10062000904BA740B04BD1F410923004109231049B
:10063000109232041092330414BE84B7877F84BFB3
:100640000FB6F894A895809160008861809360004F
:10065000109260000FBEE0E0F8E3099512E0A0E020
:10066000B1E0EEE0F1E602C005900D92A437B107CB
:10067000D9F724E0A4E7B2E001C01D92A033B2078D
:10068000E1F70E94EB290C9485300C94000081E086
:10069000089581E008950C94490308950C944D0346
:1006A0001F93CF93DF9300D000D01F92CDB7DEB75A
:1006B00049835A836B833091B70289819A813111C2
:1006C00014C0662359F0222349F00E945622182FA5
:1006D000682F89819A810E94FF2103C00E942A22EB
:1006E000182F69817A81812F04C00E945622698166
:1006F0007A810F900F900F900F900F90DF91CF9114
:100700001F910C941404FC01262F408151816281B9
:10071000738184810C945003CF93DF93EC0160E0EC
:100720000E948303BE01DF91CF910C944E030E947F
:10073000A2250E948E23811102C00E9435240E94AE
:10074000ED130C9433060E944B120C942F0608955F
:100750000E94081D0E94A7032FEF84E39CE0215014
:1007600080409040E1F700C000000C947C250F937E
:100770001F93CF93DF93EC0161E00E9483038C0110
:10078000BE010E949A118823A9F1BE01C8010E94EE
:100790004B03882379F1BE01C8010E9441168823CA
:1007A00049F1BE01C8010E949316882319F1BE01C8
:1007B000C8010E94BE178823E9F0BE01C8010E944B
:1007C0001E158823B9F08A81882369F001158CE50C
:1007D000180731F00F3D1C4531F40E9435240AC042
:1007E0000E94A80307C0CE01DF91CF911F910F9106
:1007F0000C94470380E0DF91CF911F910F910895F2
:1008000008950C94000481E008950C940304CF93A0
:10081000C82F0E9401048C2F0E940504CF910895D7
:1008200080E090E00895089520E3829FC0011124A4
:10083000FC012CE0729FE00DF11D1124E60FF11D6B
:10084000EE0FFF1FE259FE4F859194910895880F96
:10085000991FFC01E255FC4F859194910895CF9327
:10086000DF930E9414040E944705EC018115904516
:1008700008F041C0C11580E4D80708F0D1C0C83ED7
:10088000D10510F5C03ED10508F0FDC0C83AD1052C
:1008900078F4C53AD10508F0A2C0C130D10509F4F9
:1008A000F2C008F4EEC0C430D10508F0ECC0E9C0D5
:1008B000CF3BD10508F49BC0C03CD10508F4E1C092
:1008C000CE01805C91099EC0C11590E2D90758F411
:1008D000C11521E0D20708F0D6C0C03FD10508F409
:1008E000D0C0D065D0C0C11580E3D80708F08EC055
:1008F000CE019F7087C0C11595E5D90708F043C0A8
:10090000C11524E5D20708F0A2C0C11582E5D807B9
:1009100008F5C11591E5D90708F085C0CE0174E04E
:10092000969587957A95E1F783709C2F937021E0D7
:1009300030E002C0220F331F9A95E2F73C68382B53
:10094000CF70C695C69580E2C89FE0011124C22BE6
:10095000D32B99C09E01237033278C2F86958695C3
:10096000C115D34508F064C0C1E0D0E002C0CC0F8F
:10097000DD1F2A95E2F720E2829FC0011124C82BD7
:10098000D92BDC6880C0C11529E5D207A0F4C115B8
:1009900088E5D80708F060C0C11596E5D90708F0CA
:1009A00070C08C2F0E94DB058F71C82FD0E0DC2F28
:1009B000CC27D06268C0C1152AE5D20708F451C01F
:1009C000CE0190568115904208F05BC08D2F8F713B
:1009D0000E94DB05DD27D0628F71D82B54C0C55A29
:1009E000D0E0C15EDD4FC881D0E0D0644CC0C85AB1
:1009F000D0E0CC0FDD1FCF50DE4F0990D881C02D45
:100A0000D46441C00E942704EC013DC0CE01992767
:100A1000D3FF03C0EC01D86C36C0EC01D06C33C0FE
:100A2000DF70D06A30C0DC2FCC27C16FD06A2BC0FA
:100A3000C1E0D0E002C0CC0FDD1F2A95E2F720E232
:100A4000829FC0011124C82BD92BDA681CC0DC2F6F
:100A5000CC27C46FD06A17C0DC2FCC27C06FD06AF8
:100A600012C08C2F8F700E94DB0594E0D695C7953D
:100A70009A95E1F7CF70D0E0DC2FCC27D069C82B56
:100A800002C0C0E0D0E0CE01DF91CF91089582385E
:100A9000910569F1B0F48133910509F46DC048F412
:100AA0008932910509F463C08A32910509F469C05D
:100AB00008958533910509F455C089339105B9F03E
:100AC0000895833E910569F138F4803E9105B1F0B7
:100AD000823E910509F10895863E9105A9F1873E70
:100AE0009105B9F1843E910509F064C023C02091BD
:100AF000210420FD4FC021FD4DC0089580912104A7
:100B000080FD44C08091220480FF44C08091210474
:100B100084FD42C083EE4DC08091210482FF38C025
:100B2000F5CF8091210482FD33C08091220480FDA5
:100B300031C0ECCF8091220481FF32C0809121042A
:100B400084FD2AC087EE35C08091210483FF26C032
:100B5000F5CF8091210483FD21C08091220481FD85
:100B60001FC0ECCF8091210485FD1CC01DC0809169
:100B7000210485FD19C016C08091210486FD16C090
:100B800017C08091210486FD13C010C089E311C0F5
:100B900082EE0FC080EE0DC080E00BC086EE09C073
:100BA00084EE07C089E205C085E303C08AE201C084
:100BB00081E390E008959091210492FF0DC0282FC9
:100BC0002871283019F4877F846006C0282F24718B
:100BD000243011F48B7F886093FF0DC0282F28717B
:100BE000283119F4877E846106C0282F24712431AE
:100BF00011F48B7E88612091220420FF0DC0382FD4
:100C00003871383019F4877F816006C0382F317110
:100C1000313011F48E7F886021FF0DC0282F28719C
:100C2000283119F4877E816106C0282F2171213176
:100C300011F48E7E886194FD877E0895E82FF0E0A0
:100C4000EE0FFF1FEC5BFC4F8081918108950895AA
:100C500080EA8A95F1F7089508950C942C060C9477
:100C60002D060C942C060C943106F894E82FE2958E
:100C7000EF70F0E031A1282F2F7081E090E001C0EB
:100C8000880F2A95EAF7982F9095932391A392A124
:100C9000892B82A3789408950F931F93CF93DF93AA
:100CA00083E30E94350682E30E94350686EC0E94AB
:100CB000350685E30E943506C2E2D2E00EE212E07C
:100CC00089910E9435060C171D07D1F710923D033C
:100CD00010923C03109245031092440310923F037C
:100CE00010923E0310924703109246031092410364
:100CF000109240031092490310924803109243034C
:100D00001092420310924B0310924A0384E00E9417
:100D10001B07DF91CF911F910F910C9497037F9246
:100D20008F929F92AF92BF92CF92DF92EF92FF92FB
:100D30000F931F93CF93DF93CEE2D2E08CE3A82EE4
:100D400083E0B82E94E4E92E93E0F92E712C01E0B3
:100D500010E06E018881F894E82FE295EF70F0E0E2
:100D600021A18F70A80102C0440F551F8A95E2F798
:100D7000CA01922F982B91A392A18095892382A3D7
:100D800078940E942806E2E2F2E020E030E0812C34
:100D9000912C4191A42FA295AF70B0E090968C91C8
:100DA00090E04F7002C0959587954A95E2F780FDD7
:100DB00008C0C801022E02C0880F991F0A94E2F7EA
:100DC00002C080E090E0882A992A2F5F3F4F2C30A4
:100DD0003105F9F62196F60180810E943506F5016C
:100DE000808191818816990621F09182808281E02C
:100DF00001C080E0782AF2E0AF0EB11CEA14FB04D7
:100E000009F0A7CF272D44E064E473E08CE393E07E
:100E10000E941C070E94A303872DDF91CF911F9191
:100E20000F91FF90EF90DF90CF90BF90AF909F9089
:100E30008F907F9008950895FF920F931F93CF9303
:100E4000DF93F82E092F162FD72FC42F222349F016
:100E500081E0809376020E9413259093750280931F
:100E60007402809176028823D9F080917402909167
:100E700075020E942B25069798F0EF2DF02FA12FD9
:100E8000BD2F80E090E04C2F50E08417950734F49C
:100E9000219131912D933D930196F7CF10927602D7
:100EA000DF91CF911F910F91FF900895EF92FF92E4
:100EB0000F931F93CF93DF938B01682F11110AC0FB
:100EC000442329F0E82FF0E0E255FC4F6491762F9F
:100ED000862F75C0212F30E0E82FF0E0442321F069
:100EE000E255FC4FE491F0E046E0049FC00111247C
:100EF000CFEFD0E0BE010E943D2F4BEA4603C00178
:100F0000479F900D1124800F911D800F911D982FE8
:100F1000990F890FAE01421B530B4E9FD0014F9F7B
:100F2000B00D5E9FB00D11249B2F189FA0011124BE
:100F3000452F55278E01041B150B0E9FA0010F9FF7
:100F4000500D1E9F500D11247E01E81AF108E29EFB
:100F50008001E39E100DF29E100D1124212F3327E6
:100F6000C21BD30BCE9F9001CF9F300DDE9F300D63
:100F7000112462307105A9F048F46115710569F01A
:100F800061307105C9F48B2F752F0DC06430710568
:100F900081F058F06630710579F47E2F8B2F932FF6
:100FA0000DC0832F7B2F9E2F09C08E2F7B2F952F57
:100FB00005C08E2F732F02C07E2F852F692FDF91E2
:100FC000CF911F910F91FF90EF90089541E00E9403
:100FD0005607089520E030E0869F212D969F200D32
:100FE000311D1124C9010895BC018230910508F416
:100FF0000895613E8EE1780748F49B0195E03695AF
:1010000027959A95E1F748E0420F01C04FEF91E034
:10101000242F30E0290F311D35952795229FF001AF
:10102000239FF00DF00D11246E177F0718F44FEF7A
:10103000420F04C02F3F39F091E0920F491740F75B
:101040008FEF890F08958FEF0895482F982F46FD51
:101050009095E92FEF739F7046FD9F5FE295EF70CB
:10106000EE0FF0E0EE5CFD4F2181299F802D212DB8
:10107000112482958F702295207F822B3081982FAA
:10108000930F892F47FD819580580895E42FF0E054
:10109000EE0FFF1FEC5CFE4F408134EE439F412D6D
:1010A0001124E72FF0E050E0445E5F4FDA01A21B0D
:1010B000B1099D01B7FF03C031952195310993E036
:1010C000220F331F9A95E1F7AF01421B530B9A0190
:1010D00057FF02C020E030E0279F212D1124722FFE
:1010E0000895E42FF0E0EE0FFF1FEC5CFE4F40810F
:1010F00034EE439F412D1124E82FF0E050E0445E90
:101100005F4FDA01A21BB1099D01B7FF03C0319502
:101110002195310993E0220F331F9A95E1F7AF0132
:10112000421B530B9A0157FF02C020E030E0582FBA
:10113000259F212D1124822F0895622F0895E42FD9
:10114000F0E0EE0FFF1FEC5CFE4F6081621B089524
:10115000E42FF0E0EE0FFF1FEC5FFE4F61A9621B72
:101160000895A22F50E0FA01EE0FFF1FEC5FFE4F33
:1011700091A9905297FD9195440F551FFA01EC5C8F
:10118000FE4F3081232F30E02A1B3109290F311DFA
:1011900097FD3A95620F0895EF920F931F9393E096
:1011A000099F80011124159507956E2D600F1F91E1
:1011B0000F91EF9008950F93CF93DF93D72FC82F00
:1011C00047FD4195E8E3F0E0CF01841B910947FD1D
:1011D0009395889FB001899F700D700D1124229FF7
:1011E000C001239F900D900D1124860F971F0E9420
:1011F000F407682F660F860F682F600F7D2F8C2FE6
:10120000DF91CF910F9108950F931F93522F10E00C
:10121000F801EE0FFF1FEC5FFE4FE1A9F0E0B09781
:101220009F015203D001539FB00D1124000F111FD5
:10123000F801EC5CFE4F008110E0005711094003FB
:101240009001419F300D11242A0F3B1F37FF02C030
:1012500021583F4F220F232F221F330B620F1F9164
:101260000F9108950F931F93522F10E0F801EE0F86
:10127000FF1FEC5FFE4FE1A9F0E0B097EE0FFF1FFC
:101280009F015203D001539FB00D1124000F111F75
:10129000F801EC5CFE4F008110E000571109000FCF
:1012A000111F40039001419F300D11242A0F3B1F55
:1012B00037FF02C021583F4F220F232F221F330B2D
:1012C000620F1F910F9108950F931F9310E0F80183
:1012D000EE0FFF1FEC5CFE4F9081905797FD9195AC
:1012E000000F111FF801EC5FFE4FE1A9F0E0B0978D
:1012F000DF01AA0FBB1F8D010E0F1F1F2003D0019E
:10130000219FB00D1124E8E3F0E0E91BF10997FDFE
:10131000F3959F01220F331F89010E0F1F1F4003FA
:101320009001419F300D11242A0F3B1F37FF02C04F
:1013300021583F4F220F232F221F330B620F1F9183
:101340000F9108954095282F429F412D1124842FFD
:10135000089522E8241B08F420E0620F0895EF921C
:10136000FF920F93970195E0099F200D311D1124E5
:101370002F3F310519F010F02FEF30E02095382F76
:10138000320F08F43FEF832F0F91FF90EF900895F5
:10139000EF92FF920F93E00EF11CF90137FF03C0AB
:1013A000F195E195F10924E0EE0FFF1F2A95E1F791
:1013B000EF3FF10519F014F0EFEFF0E09A0157FF5D
:1013C00003C031952195310994E0220F331F9A957E
:1013D000E1F72E173F070CF4F901EE0DFF1DEF3F6B
:1013E000F10519F010F0EFEFF0E02E2F2095382FD7
:1013F000320F08F43FEF832F0F91FF90EF90089585
:10140000EF92FF920F93972F093438F4B701601BC6
:1014100071096F3F710519F010F06FEF70E0485FD0
:101420005F4F4131510540F0A901485F5F4F4131A5
:10143000510510F06FEF70E06095482F460F08F4EB
:101440004FEF842F37FF02C02D5F3F4F3595279513
:101450003595279560914D03620F792F0F91FF907D
:10146000EF900895EF92FF920F939701201B31099F
:101470002F3F310519F010F02FEF30E0322F30956B
:10148000482F430F08F44FEF842F620F0F91FF9006
:10149000EF900895EF92FF920F939701201B31096F
:1014A0002F3F310519F010F02FEF30E02095382F45
:1014B000320F08F43FEF832F0F91FF90EF900895C4
:1014C000FC019B01009721F477FF2BC080E8089571
:1014D000AC0197FF04C044275527481B590BB9019D
:1014E000640F751F37FD0CC0241B350BC901A5E027
:1014F000880F991FAA95E1F70E94512F80E20CC036
:10150000CB0165E0880F991F6A95E1F7BA01621B6C
:10151000730B0E94512F80E6861BF7FF03C0819555
:10152000089580E00895FF920F931F93CF93DF9368
:10153000F62E172FD82FC901C72FC01BBA010E9442
:10154000600A982F990F890F7C2F781B719F712D3E
:1015500011246F2D8D2FDF91CF911F910F91FF904F
:101560000895FF920F931F93CF93DF93F62ED72FFB
:10157000182FC901C12FC01BBA010E94600A982F01
:10158000990F890FC81B2C2F219F212D1124822FE9
:101590006F2D7D2FDF91CF911F910F91FF900895B7
:1015A000EF920F931F93CF93DF93D62F172FC82F50
:1015B000C9010E19070FBA010E94600A702F781B2B
:1015C000719F712D11246D2F8C2FDF91CF911F9161
:1015D0000F91EF900895EF920F931F93CF93DF93A6
:1015E000D62FC72F182FC9010E19010FBA010E945B
:1015F000600A081B202F219F212D1124822F6D2F7F
:101600007C2FDF91CF911F910F91EF9008950F9351
:10161000CF93DF93D72FC82FC901BA010E94600A68
:10162000682F600F7D2F8C2FDF91CF910F91089540
:10163000EF920F93CF93DF93D72FC82FC9010E19C5
:10164000BA010E94600A602F681B7D2F8C2FDF91EA
:10165000CF910F91EF9008950E94E607089545E01D
:1016600050E06CE170E08CE493E00C94113045E0C4
:1016700050E06CE170E08CE493E00C942F30ECE4EB
:10168000F3E085E380838091EE019091EF01A091DA
:10169000F00181839283A3838FE784830C94370BBB
:1016A00080E008950F931F93CF93DF93C82FD62F19
:1016B0008A010E94500B9CE0C99FF0011124EC5F4D
:1016C000FE4FED0FF11D90819F3F29F0F801E80FCB
:1016D000F11D90838F5FDF91CF911F910F9108953E
:1016E000E0914002F09141020994E0913C02F091B6
:1016F0003D0209944F925F926F927F928F929F92D8
:10170000AF92BF92CF92DF92EF920F931F93CF933E
:10171000DF932C013B01FC01C0818BE0C89FC02DF1
:101720001124DBE0DC0FD63308F0D5E360915003E1
:10173000669580915103909152030E94EA07182FF9
:10174000CD1708F044C08C2E912CF401E256FE4FC8
:101750009081F20181818923C1F1F401EE0FFF1F15
:10176000EC5CFE4FC080D12CF0E7CF1AD108F40119
:10177000EE0FFF1FEC5FFE4FA1A8B12C80E2A81A6C
:10178000B108CC9C9001CD9C300D300D1124AA9C49
:10179000C001AB9C900D900D1124820F931F0E94ED
:1017A000F407082F60914D0370914E0380914F0311
:1017B000E12E9501A601F30109950E942C0B462FFD
:1017C000282F672FC4010E94750BCF5FB9CF81E02E
:1017D000D53308F080E0DF91CF911F910F91EF900A
:1017E000DF90CF90BF90AF909F908F907F906F9041
:1017F0005F904F90089560ED7AE00C947A0B6BEE59
:101800007AE00C947A0B6CEC78E00C947A0B68E13B
:101810007BE00C947A0BAF92BF92CF92DF92EF9263
:10182000FF920F931F93CF93DF936C015B01FC0139
:10183000C0818BE0C89FC02D1124DBE0DC0FD633C4
:1018400008F0D5E360915003669580915103909123
:1018500052030E94EA07182FCD1778F5EC2EF12CD1
:10186000F701E256FE4F9081F6018181892319F13B
:10187000F701EE0FFF1FEC5FFE4F21A930E0205271
:101880003109F701EE0FFF1FEC5CFE4F408150E085
:101890004057510960914D0370914E0380914F0361
:1018A000012FF50109950E942C0B462F282F672F39
:1018B000C7010E94750BCF5FCFCF81E0D53308F011
:1018C00080E0DF91CF911F910F91FF90EF90DF901B
:1018D000CF90BF90AF90089563E97AE00C940B0C21
:1018E00061EB7AE00C940B0C6BED78E00C940B0C34
:1018F00067E07BE00C940B0CBF92CF92DF92EF92EB
:10190000FF920F931F93CF93DF938C017B01FC0118
:10191000C0818BE0C89FC02D1124DBE0DC0FD633E3
:1019200008F0D5E360915003669566958091510368
:10193000909152030E94EA07B82ECD17F0F4CC2EF6
:10194000D12CF601E256FE4F9081F8018181892366
:1019500091F060914D0370914E0380914F032B2DB8
:101960004C2FF70109950E942C0B462F282F672F2B
:10197000C6010E94750BCF5FE0CF81E0D53308F040
:1019800080E0DF91CF911F910F91FF90EF90DF905A
:10199000CF90BF90089566E478E00C947C0C61E7EA
:1019A00078E00C947C0C6DE978E00C947C0C6FE989
:1019B00078E00C947C0C68EA78E00C947C0C61EB89
:1019C00078E00C947C0C7F928F929F92AF92BF92A2
:1019D000CF92DF92EF92FF920F931F93CF93DF93FB
:1019E0006C015B01FC01C0818BE0C89FC02D1124FC
:1019F000DBE0DC0FD63308F0D5E360915003669549
:101A0000669580915103909152030E94EA07182F26
:101A100080E4810F0E94250890E8F92EF80E812FAE
:101A20000E94250820E8722E780ECD1700F58C2E26
:101A3000912CF401E256FE4F9081F60181818923B9
:101A4000A1F060914D0370914E0380914F03E12E00
:101A50000C2F272D4F2DF50109950E942C0B462F99
:101A6000282F672FC4010E94750BCF5FDECF81E066
:101A7000D53308F080E0DF91CF911F910F91FF9057
:101A8000EF90DF90CF90BF90AF909F908F907F901E
:101A9000089564E079E00C94E30C62E379E00C943F
:101AA000E30C64E679E00C94E30CAF92BF92CF9222
:101AB000DF92EF92FF920F931F93CF93DF937C01FE
:101AC0005B01FC01C0818BE0C89FC02D1124DBE0CD
:101AD000DC0FD63308F0D5E32091500330E040E02E
:101AE00050E06FEF7FEF80E090E00E94652F89016A
:101AF000CD17E8F5CC2ED12CF601E256FE4F9081A1
:101B0000F7018181892389F190915503915097FDC7
:101B100015C0292F092E000C330BF901EB5AFC4F8D
:101B20008189C813F3CF220F331FF901EB5AFC4F01
:101B3000218D328D2017310748F701C0980160913F
:101B40005003C9010E94EA07AC0160914D037091F6
:101B50004E0380914F03F50109950E942C0B462FEF
:101B6000282F672FC6010E94750BCF5FC1CF81E080
:101B7000D53308F080E0DF91CF911F910F91FF9056
:101B8000EF90DF90CF90BF90AF90089562EA79E038
:101B90000C94550D69EA79E00C94550D2F923F9203
:101BA0004F925F926F927F928F929F92AF92BF926D
:101BB000CF92DF92EF92FF920F931F93CF93DF9319
:101BC000CDB7DEB729970FB6F894DEBF0FBECDBFF5
:101BD0008B834B013A01DB011C918BE0189F102D88
:101BE0001124BBE0B10FB983B63310F0E5E3E9830C
:101BF000F0915503FA838981181708F07BC0A12E54
:101C0000B12CF501E256FE4F9081D40111968C91D2
:101C1000892309F46DC020904D0330904E034B8012
:101C2000512CC501880F991FFC01EC5CFE4FFD8310
:101C3000EC83C501880F991F9C012B5C3E4F3F83AD
:101C40002E83FA814F1608F043C0E42CF12CAC81AE
:101C5000BD81BC91EB2FF0E0F987E887F701EB5AE3
:101C6000FC4F818128853985281B310939872887D0
:101C7000AE81BF81CC90D12C8185C81AD108F901E1
:101C8000EE9F9001EF9F300D300D1124CC9CC001D0
:101C9000CD9C900D900D1124820F931F0E94F4078C
:101CA000082FF701EE0FFF1FEB5AFC4F6091500316
:101CB000818D928D0E94EA077C01960148855985A5
:101CC000B101852DF30109951B014394582EB9CF1D
:101CD00020914F03352D329F312D1124832FB101D7
:101CE0000E942C0B462F282F672FC5010E94750BD1
:101CF0001F5F81CF81E09981953308F080E02996BC
:101D00000FB6F894DEBF0FBECDBFDF91CF911F910C
:101D10000F91FF90EF90DF90CF90BF90AF909F908A
:101D20008F907F906F905F904F903F902F9008958D
:101D30002091550331E0231B08F420E04FEA59E0DD
:101D4000BC01822F0C94CE0D4FEA59E0BC0180E01B
:101D50000C94CE0D2091550331E0231B08F420E0B4
:101D600048EC59E0BC01822F0C94CE0D48EC59E0B0
:101D7000BC0180E00C94CE0D2091550331E0231B73
:101D800008F420E040E05AE0BC01822F0C94CE0D14
:101D900040E05AE0BC0180E00C94CE0D2091550348
:101DA00031E0231B08F420E042E35AE0BC01822F1B
:101DB0000C94CE0D42E35AE0BC0180E00C94CE0DB1
:101DC0002091550331E0231B08F420E04AE45AE057
:101DD000BC01822F0C94CE0D4AE45AE0BC0180E095
:101DE0000C94CE0DDF92EF92FF920F931F93CF933F
:101DF000DF938C01DC018C91CBE08C9FC02D1124F2
:101E0000DBE0DC0FD63308F0D5E360914D03709131
:101E10004E0380914F030E942C0BF62EE72ED82EF6
:101E2000CD1798F4EC2FF0E0DF01A256BE4F8C9155
:101E3000D80111969C91982331F02D2D4F2D6E2DA8
:101E4000CF010E94750BCF5FEBCF81E0D53308F057
:101E500080E0DF91CF911F910F91FF90EF90DF9085
:101E60000895AF92BF92CF92DF92EF92FF920F93BD
:101E70001F93CF93DF938C01FC01C0818BE0C89F3F
:101E8000C02D1124DBE0DC0FD63308F0D5E3E09061
:101E90004E03F0904F03D0904D036D2D7E2D8F2D6E
:101EA0000E942C0BC62EB72EA82E609150036D0DEC
:101EB0007E2D8F2D0E942C0BF62EE72ED82ECD17BF
:101EC000B8F48C2F90E0FC01E256FE4F3081F8010F
:101ED0002181232359F030FF04C02D2D4F2D6E2D6D
:101EE00003C02A2D4C2D6B2D0E94750BCF5FE7CFC1
:101EF00081E0D53308F080E0DF91CF911F910F9101
:101F0000FF90EF90DF90CF90BF90AF900895BF9279
:101F1000CF92DF92EF92FF920F931F93CF93DF93B5
:101F20006C01FC01C0818BE0C89FC02D1124DBE057
:101F3000DC0FD63308F0D5E300914E03B0904F0389
:101F40002091500310E4129F112D1124CD1718F584
:101F5000EC2EF12CF701E256FE4F9081F6018181C3
:101F60008923B9F0F701EE0FFF1FEC5FFE4F81A947
:101F700082958F7060914D03819F600D1124702FA9
:101F80008B2D0E942C0B462F282F672FC7010E94F4
:101F9000750BCF5FDBCF81E0D53308F080E0DF91B8
:101FA000CF911F910F91FF90EF90DF90CF90BF9056
:101FB0000895BF92CF92DF92EF92FF920F931F93FB
:101FC000CF93DF937C01FC01C0818BE0C89FC02DC3
:101FD0001124DBE0DC0FD63308F0D5E3C0904E03CC
:101FE000B0904F032091500330E4D32E3D2D329F0B
:101FF000312D1124D32ECD1738F50C2F10E0F80118
:10200000E256FE4F9081F70181818923D9F0F801D2
:10201000EE0FFF1FEC5CFE4F6081D69EB0011124D5
:1020200095E0759567959A95E1F780914D03680F56
:102030007C2D8B2D0E942C0B462F282F672FC8013B
:102040000E94750BCF5FD7CF81E0D53308F080E0D9
:10205000DF91CF911F910F91FF90EF90DF90CF9084
:10206000BF900895DF92EF92FF920F931F93CF934B
:10207000DF938C01DC01CC918BE0C89FC02D112433
:10208000DBE0DC0FD63308F0D5E3E0904D03F090B1
:102090004E03D0904F036091500366956695669508
:1020A00080915103909152030E94EA070E942508F3
:1020B000805887FD8195880F282F3D2D239F212D46
:1020C0001124822FB7010E942C0BF62EE72ED82E5A
:1020D000CD1798F4EC2FF0E0DF01A256BE4F8C91A3
:1020E000D80111969C91982331F02D2D4F2D6E2DF6
:1020F000CF010E94750BCF5FEBCF81E0D53308F0A5
:1021000080E0DF91CF911F910F91FF90EF90DF90D2
:102110000895DF92EF92FF920F931F93CF93DF9377
:10212000EC01FC01E256FE4F9081692381F1D090D1
:102130004E0300914F0310914D03E12EF12C0E94AC
:10214000F82F282FC7018C549F4F68E671E00E943A
:10215000512F8E199F0997FD039695958795959513
:1021600087952370612F289F600D11247D2D802F6E
:102170000E942C0B462F282F672FCE01DF91CF9185
:102180001F910F91FF90EF90DF900C94750BDF91F2
:10219000CF911F910F91FF90EF90DF900895CF9214
:1021A000DF92FF920F931F93CF93DF938C01FC017B
:1021B000C281C1111DC06091500320E1620F08F47B
:1021C0006FEF80915103909152030E94EA076AE0F9
:1021D00070E00E943D2F892B59F50E94F82F65E38E
:1021E00070E00E94512FF80161810E94891020C087
:1021F000FC018081CBE08C9FC02D11249BE0F92E47
:10220000FC0EF5E3FF1510F485E3F82ED0E0CF2C9B
:10221000D12CCC15DD053CF4F8016181CE010E9482
:1022200089102196F6CFC1E0F4E3FF1508F4C0E071
:102230008C2FDF91CF911F910F91FF90DF90CF9066
:1022400008951F93CF93DF93FC01E256FE4F208148
:102250006223A9F0EC010E94F82F182F0E94F82F9A
:10226000612F782F80914F030E942C0B462F282F2F
:10227000672FCE01DF91CF911F910C94750BDF91E9
:10228000CF911F910895CF92DF92FF920F931F93EA
:10229000CF93DF938C01FC01C281C1111DC06091FD
:1022A000500320E1620F08F46FEF80915103909189
:1022B00052030E94EA0765E070E00E943D2F892BDF
:1022C00059F50E94F82F65E370E00E94512FF80144
:1022D00061810E94211120C0FC018081CBE08C9F94
:1022E000C02D11249BE0F92EFC0EF5E3FF1510F430
:1022F00085E3F82ED0E0CF2CD12CCC15DD053CF4B5
:10230000F8016181CE010E9421112196F6CFC1E032
:10231000F4E3FF1508F4C0E08C2FDF91CF911F91FB
:102320000F91FF90DF90CF900895E0913E02F091E1
:102330003F020994CF92DF92EF92FF920F931F9387
:10234000CF93DF93CDB7DEB728970FB6F894DEBFF3
:102350000FBECDBFFB018281882349F0AE014F5FE4
:102360005F4F608181810E94520BF82E01C0F12CD9
:10237000E09077020F2D10E0C8018E0D911D099796
:1023800064F188E090E06C01C01AD10AB801685885
:102390007D4FA60188E792E00E940830B80160589E
:1023A0007D4FA60180E892E00E940830A601440F0C
:1023B000551FB801660F771F60577D4F80E992E087
:1023C0000E940830B80168577D4FA60188E892E066
:1023D0000E940830EA94E092770210917702DE01C1
:1023E000119640E0842F810FF41609F190E05D9181
:1023F000252F30E0BC0169587D4FF901EE0FFF1F1A
:10240000EC5CFE4F0081FB010183220F331FF901B9
:10241000EC5FFE4F21A9FB012187518B880F991F8B
:10242000FC01E958FD4F128E118E4F5FDBCF809378
:10243000770281E028960FB6F894DEBF0FBECDBFBD
:10244000DF91CF911F910F91FF90EF90DF90CF9090
:10245000089508950C9429120E942A120C942912AE
:1024600008950C943012CF93DF93FC01C081C150CA
:102470008BE0C89FC02D1124DBE0DC0FD63308F0C1
:10248000D5E36D2F8C2F0E9431126D2F8C2FDF9191
:10249000CF910C9430124F925F926F927F928F92F5
:1024A0009F92AF92BF92CF92DF92EF92FF92CF9323
:1024B0006091A0027091A1028091A2029091A3026A
:1024C0000E943A256B017C010E941F254B015C0193
:1024D0006093A0027093A1028093A2029093A30242
:1024E000A0917702E7E7F2E08A2F90E04FEF5FEFED
:1024F00060E070E04C195D096E097F09A91799F039
:10250000218D328D2901612C712C441555056605EC
:10251000770510F4815004C02C0D3D1D328F218FA2
:102520009F5F3296EBCF8093770280914C03982F78
:10253000937021F0C82FC695C69501C0C0E0909158
:10254000D3019130E9F038F0923009F41CC1933096
:1025500009F424C134C11092D401809251039092A5
:102560005203A0925303B092540389E2E7E7F2E0EA
:10257000A5E5B3E001900D928A95E1F781E00BC1EA
:102580009091D701C9130CC0837090E04091D8019D
:1025900050E021E08417950709F420E0822F01C064
:1025A00081E081708093D6014C2F50E04532510577
:1025B00008F0C2C0FA01EA5AFF4F0C94842F882316
:1025C00009F4BAC040E060E080E00E949511B4C018
:1025D00084ED91E00E94F20EB0C084ED91E00E9483
:1025E000310FABC084ED91E00E94870FA6C084ED4F
:1025F00091E00E94D90FA1C084ED91E00E943210B9
:102600009CC084ED91E00E94CB0C97C084ED91E0DA
:102610000E94CF0C92C084ED91E00E946C0C8DC0A2
:1026200084ED91E00E94700C88C084ED91E00E94DE
:10263000FB0B83C084ED91E00E94FF0B7EC084ED14
:1026400091E00E94D30C79C084ED91E00E94D70CF8
:1026500074C084ED91E00E94DB0C6FC084ED91E0CA
:102660000E94DF0C6AC084ED91E00E94030C65C0FB
:1026700084ED91E00E94740C60C084ED91E00E94B2
:10268000780C5BC084ED91E00E94070C56C084ED8D
:1026900091E00E94490D51C084ED91E00E944D0DE2
:1026A0004CC084ED91E00E94510D47C084ED91E053
:1026B0000E94CF1042C084ED91E00E9443113DC0C2
:1026C00084ED91E00E94C60D38C084ED91E00E9437
:1026D000CA0D33C084ED91E00E94980E2EC084EDA7
:1026E00091E00E94A40E29C084ED91E00E94AA0E00
:1026F00024C084ED91E00E94B60E1FC084ED91E0ED
:102700000E94BC0E1AC084ED91E00E94C80E15C054
:1027100084ED91E00E94CE0E10C084ED91E00E9405
:10272000DA0E0BC084ED91E00E94E00E06C084ED4D
:1027300091E00E94EC0E01C080E09091D4019F5F77
:102740009093D40181110CC082E08093D3018091D9
:10275000D601811105C0C11103C083E08093D3016C
:102760000E942C1284ED91E0CF91FF90EF90DF90CA
:10277000CF90BF90AF909F908F907F906F905F9021
:102780004F900C943312C093D70183708093D8017B
:102790000E94700B83E08093D30111C060915103BC
:1027A0007091520380915303909154030E943A25F3
:1027B000603171058105910510F01092D301CF9120
:1027C000FF90EF90DF90CF90BF90AF909F908F9051
:1027D0007F906F905F904F900895E0913A02F09152
:1027E0003B02099510925503EEE6F3E08FEF9FEF61
:1027F0008193919323E0EE37F207D1F7109277029D
:10280000E0E9F2E08FEF9FEF8193919322E0E03ACD
:10281000F207D1F70E948E23811104C00E94352453
:102820000E943F0B0E942F0B80914C038C7F11F470
:102830000C943F0B089520914C0391E092279093C4
:102840004C031092D30181110C94370B089581E051
:102850000C941B1490914C03937091F0811102C061
:10286000946007C0853210F0906903C0880F880F0C
:10287000982B90934C031092D30161110C94370B59
:10288000089561E00C942A14682F90914C0396955A
:1028900096959F5F953210F4892F01C081E00C94CA
:1028A0002A1481E00C944414682F90914C0396955F
:1028B0009695915011F0892F01C084E20C942A144E
:1028C00081E00C94541490914C03937049F08093E0
:1028D0004D0360934E0340934F0321110C94370B2B
:1028E0000895ACE4B3E01196EC911197F0E0282F35
:1028F00013964C91139712966C91CF0108960C94F5
:10290000631481E00C947114ACE4B3E01196EC9183
:102910001197F0E0282F13964C91139712966C9113
:10292000CF0108970C94631481E00C948414ECE4B8
:10293000F3E0628120E1620F08F46FEF9181282FAC
:102940004381892F90E00C94631481E00C949714D8
:10295000ECE4F3E0628120E1621B08F460E0918125
:10296000282F4381892F90E00C94631481E00C940C
:10297000A814ECE4F3E0438120E1420F08F44FEFA8
:102980009181282F6281892F90E00C94631481E05B
:102990000C94B914ECE4F3E0438120E1421B08F409
:1029A00040E09181282F6281892F90E00C9463147C
:1029B00081E00C94CA142091500330E1230F08F4F5
:1029C0002FEF2093500381110C94370B089581E071
:1029D0000C94DB142091500330E1231B08F420E019
:1029E0002093500381110C94370B089581E00C94CF
:1029F000EA140895FC01EE0FFF1F8E0F9F1FFC01CC
:102A0000E258FC4F6183408322830895EEE7F3E0B0
:102A100094E0ED31F90729F0818360834283339696
:102A2000F7CF089565E370E08EE793E00C947E1590
:102A3000882311F0FA0101C0FB0109940F931F9341
:102A4000CF93FB01C281CC2309F450C08C010E94BA
:102A5000D7228272F801E35CFC45E431F10508F00D
:102A600048C0E558FF4F0C94842F0E94271440C0A3
:102A700040E654E161E574E104C041E554E160E6FB
:102A800074E10E94181534C044E954E161E874E12E
:102A9000F8CF41E854E164E974E1F3CF46EB54E147
:102AA00065EA74E1EECF45EA54E166EB74E1E9CF03
:102AB00048ED54E167EC74E1E4CF47EC54E168ED94
:102AC00074E1DFCF46EF54E167EE74E1DACF47EE11
:102AD00054E166EF74E1D5CF81E005C085E003C025
:102AE0008DE001C082E10E94411402C0C1E001C03A
:102AF000C0E08C2FCF911F910F9108956A9A2EB14B
:102B00002B7F3EB134604FB7F894FC01CB01880FA6
:102B1000991F680F791F6E0F7F1FE617F70789F05F
:102B2000819198E03EB9000000C087FF2EB9880F60
:102B3000000000C000C000C02EB900C09A9591F7F7
:102B4000ECCF4FBF8FE594E00197F1F700C0000094
:102B50000895AF92BF92CF92DF92EF92FF920F93C0
:102B60001F93CF93DF937C015B01C42FD22FFC0115
:102B700082818823F9F04093A6020E941325909346
:102B8000A5028093A40280E28C0F883008F06EC00A
:102B9000C77081E001C0880FCA95EAF7DF91CF9135
:102BA0001F910F91FF90EF90DF90CF90BF90AF906B
:102BB0000C94781A8091A602481335C08091A40223
:102BC0009091A5020E942B256C01B701C5010E94BE
:102BD000C11FC816D90638F510E21D0FCD17B9F080
:102BE00080E28C0F883040F4C77081E001C0880F0C
:102BF000CA95EAF70E947F1A183058F581E09D2F98
:102C0000977001C0880F9A95EAF70E94781A802F72
:102C10000E94651A183050F5D77081E001C0880F06
:102C2000DA95EAF70AC080E28C0F8830F8F4C770B2
:102C300081E001C0880FCA95EAF7DF91CF911F911B
:102C40000F91FF90EF90DF90CF90BF90AF900C94DA
:102C50007F1A802FDF91CF911F910F91FF90EF90FE
:102C6000DF90CF90BF90AF900C94651ADF91CF9119
:102C70001F910F91FF90EF90DF90CF90BF90AF909A
:102C800008950F939C01CB01243F4CE5340731F1AB
:102C900088F4293DFCE53F07D9F02A3D4CE534078F
:102CA00079F1283D3C45A9F506E221EE41EE68EDBB
:102CB0007CE52BC0263FFCE53F07E1F0A8F0273F6D
:102CC0003C4539F507E225EE46EE67EF7CE51DC091
:102CD00007E225EE45EE69ED7CE517C006E221EE40
:102CE00040EE64EF7CE511C007E225EE44EE65EFAF
:102CF0007CE50BC006E221EE42EE66EF7CE505C006
:102D000008E221E045EE6AED7CE50E94A91580E02D
:102D100008C0FC018281882319F01092A60201C02C
:102D200081E00F910895CF93DF93EC01FB01828145
:102D3000882309F41FC1C230FCE5DF0708F41BC17A
:102D4000C6319CE5D90738F09E012B5F3C45293000
:102D5000310508F010C10E94A123909322048093B2
:102D60002104C031ECE5DE0709F4C3C008F041C01E
:102D7000C8308CE5D80709F49AC0F0F4C430ECE50B
:102D8000DE0709F487C068F4C2308CE5D80709F47F
:102D900077C0C330DC4509F0E3C080912104826034
:102DA00076C0C630ECE5DE0709F46EC008F07BC0E3
:102DB0008091210488606BC0CC308CE5D80709F481
:102DC00085C068F4CA30ECE5DE0709F474C008F089
:102DD00079C00E94081D80912104806858C0CE30BF
:102DE0008CE5D80709F476C008F07FC080912104F3
:102DF0008BC0CC3FECE5DE0709F44FC018F5C331BA
:102E00008CE5D80709F47DC078F4C131ECE5DE0724
:102E100009F473C0C231DC4509F0A2C00E94081D4C
:102E2000809121048F7733C0C5318CE5D80709F430
:102E300072C008F486C0CB3FDC4509F091C0809198
:102E400022043EC0C115FDE5DF0709F45FC058F458
:102E5000CE3F9CE5D90709F444C008F43FC08091F7
:102E6000220482602DC0C230FDE5DF0709F475C081
:102E700008F45DC0C330DD4509F072C080E06EC06B
:102E800080912104816003C080912104806180933E
:102E9000210466C08091210411C0809122048260C7
:102EA000809322045DC0809121048062F0CF8091E4
:102EB00021048064ECCF8091210488608460E7CF96
:102EC0008160EECF809121048E7FE1CF809121043B
:102ED0008D7FDDCF80912104877FD9CF809122041F
:102EE00018C0809122048D7FDBCF809121048F7EDA
:102EF000CECF809121048F7DCACF809121048F7B1A
:102F0000C6CF80912104877F8B7FC1CF809122041F
:102F10008D7F8E7FC5CF8091210482FB222720F9EF
:102F200091E0922790FB82F990FB83F9B0CF8091DA
:102F30002204982F909591708E7F892B90FB81F9B8
:102F4000AFCF0E94081D8091210487FB222720F922
:102F500091E0922790FB87F99ACF81E00E94372475
:102F600080912104909122040E94B2230E94081DA6
:102F700080E001C081E0DF91CF910895CF93DF938E
:102F800086319C4541F5EB010E94D722982F8A811A
:102F90002091D9013091DA01882379F09A7A81E081
:102FA00009F480E08093A702911102C069E201C098
:102FB00065E3C9010E947E240AC08091A7028111A5
:102FC00002C069E201C065E3C9010E9480240E9439
:102FD000252380E001C081E0DF91CF910895909397
:102FE000AD028093AC020895E091AC02F091AD0285
:102FF000309721F00190F081E02D099480E0089550
:10300000E091AC02F091AD02309721F00280F381A3
:10301000E02D09940895E091AC02F091AD02309753
:1030200039F022E0DC012C930480F581E02D099435
:1030300008952091AA023091AB022817390771F048
:103040009093AB028093AA02E091AC02F091AD02A2
:10305000309721F00680F781E02D099408952091A2
:10306000A8023091A9022817390771F09093A9029C
:103070008093A802E091AC02F091AD02309721F06C
:103080000084F185E02D0994089585B7806885BF97
:1030900085B7806885BF089581E008950C944C1829
:1030A00008950C9450180C9450180C9453180C94C8
:1030B00050180C9457180C9450180E9445180E94F0
:1030C0005B180C9459180E940A250E944C060E9415
:1030D000B6250C9455187F928F929F92AF92BF9213
:1030E000CF92DF92EF92FF920F931F93CF93DF93D4
:1030F000CDB7DEB72A970FB6F894DEBF0FBECDBFAF
:103100000E9451180E9450180E948F060E944E186B
:10311000811111C08FEF89838A831B820E9413253E
:103120008160782F9D838C8349815A816B818D8149
:103130000E941F194FC04FEAA42E42E0B42E00E0B7
:1031400010E0702E802F0E941E066C01F501819008
:1031500091905F01882699268114910431F40F5FC4
:103160001F4F0430110569F7D5CF8091230381FDEE
:103170000E94270680E0EE24E394F12C94012E2196
:103180003F21232B09F18E837F82CE20DF2081E037
:10319000CD2809F480E088870E9413258160782F6C
:1031A0009A8789874E815F8168858A850E941F1969
:1031B000000F111FF801E155FD4F80819181E82634
:1031C000F926F182E08206C08F5FEE0CFF1C8C3086
:1031D000A9F6C5CF0E9465270E94F4179091AE0210
:1031E0008917C9F00E94F4178093AE022A960FB691
:1031F000F894DEBF0FBECDBFDF91CF911F910F912D
:10320000FF90EF90DF90CF90BF90AF909F908F9006
:103210007F900C9407042A960FB6F894DEBF0FBE79
:10322000CDBFDF91CF911F910F91FF90EF90DF9075
:10323000CF90BF90AF909F908F907F900895CF9345
:10324000DF93CDB7DEB72B970FB6F894DEBF0FBE76
:10325000CDBF4F83588769877A878B87DE011196A8
:1032600086E0FD0111928A95E9F785E0FE01379627
:1032700001900D928A95E1F749815A816B817C8199
:103280008D819E810E94C41F2B960FB6F894DEBFDD
:103290000FBECDBFDF91CF910895FC018081918158
:1032A0000E9498220895CF93882309F4A4C0C82FC0
:1032B0008238C1F40E94F41781FD9DC069E38091BA
:1032C000D9019091DA010E947E240E9425232FEFDC
:1032D00081EE94E0215080409040E1F700C0000072
:1032E00069E319C0833801F50E94F41780FD83C09B
:1032F00063E58091D9019091DA010E947E240E94B9
:1033000025232FEF81EE94E0215080409040E1F79B
:1033100000C0000063E58091D9019091DA010E941C
:103320008024CF910C9425238438C1F40E94F41793
:1033300082FD61C067E48091D9019091DA010E9419
:103340007E240E9425232FEF81EE94E021508040BF
:103350009040E1F700C0000067E4DDCF8CEF8C0FF8
:10336000813AD0F46C2F8091D9019091DA010E94BA
:103370004824882349F06C2F8091D9019091DA017B
:103380000E9480240E9425236C2F8091D901909166
:10339000DA010E947E24C5CF80E28C0F883048F489
:1033A000C77081E001C0880FCA95EAF70E94DA224F
:1033B000B8CFEBE5EC0FE33040F4F0E0E059FD4F1F
:1033C000808190E0CF910C941918E8E5EC0FE7317B
:1033D00050F4F0E0EE0FFF1FEE5BFD4F8081918116
:1033E000CF910C942F18C03F30F08C2F0E945A269A
:1033F000CF910C944727CF910895882309F464C096
:10340000823879F40E94F41781FF5EC069E38091ED
:10341000D9019091DA010E947E240E94252369E35C
:1034200010C08338B1F40E94F41780FF4DC063E5EB
:103430008091D9019091DA010E947E240E94252377
:1034400063E58091D9019091DA010E9480240C9467
:103450002523843879F40E94F41782FF35C067E48D
:103460008091D9019091DA010E947E240E94252347
:1034700067E4E7CF9CEF980F913A10F4682FE1CF03
:1034800090E2980F983050F4877091E001C0990F46
:103490008A95EAF7892F0E94E022D9CF9BE5980F01
:1034A000933020F480E090E00C94191898E5980F80
:1034B000973120F480E090E00C942F18803F20F0AA
:1034C0000E94C2260C9447270895CF93C82F0E94CC
:1034D0005319C93349F42FEF87EE93E02150804010
:1034E0009040E1F700C000008C2FCF910C94FD19A3
:1034F000882321F00E94DA220C9425230895882342
:1035000021F00E94E0220C9425230895CF92DF92AF
:10351000EF92FF920F931F93CF93DF937C01062FBF
:10352000C72FFC01158112951F70D281D1110E9405
:10353000F7220E94D022882399F0DD2389F08C2F76
:10354000807F803421F080E2800F883048F082E074
:103550000E946F230E94D02291E0D82ED92601C06C
:10356000D12CCC2EC2948FE0C8228C2D90E0FC018F
:10357000E157FF4F0C94842F8C2F807FCF708823CE
:1035800011F0C295C07FDD2399F0CC2309F48DC1E1
:1035900080E2800F883010F0011104C08C2F0E944F
:1035A000DA2203C08C2F0E94EA220E9425237DC1CB
:1035B000802F0E94FD19CC2309F49CC180E2800F6A
:1035C000883010F0011104C08C2F0E94E02203C04B
:1035D0008C2F0E94F0220E9425238CC18C2F807F8B
:1035E000CF70803211F0C295C07F002319F00130F6
:1035F000C9F022C0DD2371F0112341F0113031F404
:103600000E940A238C2B0E94122374C10E940A2359
:103610008C2B1DC0112319F0113009F46BC10E94CD
:103620001B2325C0DD2321F0163008F063C10EC036
:10363000153008F05FC11BC0DD2361F0112331F0AC
:10364000F701858180FF31C18F7085838C2F0E94A7
:10365000781A50C1112359F0093309F037C1FFEF2F
:1036600027EE83E0F15020408040E1F72DC18C2F00
:103670000E947F1A3FC18C2F86958695837019F022
:10368000813061F037C1DD2321F0802F9C2F9370B2
:1036900002C080E090E00E94191834C1DD2321F0BF
:1036A000802F9C2F937002C080E090E00E942F1822
:1036B00029C1802FDD2319F00E945A2602C00E94E2
:1036C000C2260E9447271EC18C2F837009F045C077
:1036D000D11114C1402F429546954770440F440FB5
:1036E000602F6F70862F90E0A0E0B0E0042E04C041
:1036F000880F991FAA1FBB1F0A94D2F704FF10C09E
:103700000FE010E020E030E004C0000F111F221F86
:10371000331F4A95D2F7009510952095309503C038
:1037200000E010E09801C695C695C370BC01CD01BC
:10373000602B712B822B932BC23049F058F4C1308F
:1037400019F00E941521DAC00E940321D7C00E94FF
:103750002721D4C00E940121D1C0DD2319F08C2F74
:10376000817001C08695882309F4C8C0402F429516
:1037700046954770440F440F602F6F70862F90E07E
:10378000A0E0B0E0042E04C0880F991FAA1FBB1F41
:103790000A94D2F704FF10C00FE010E020E030E000
:1037A00004C0000F111F221F331F4A95D2F7009546
:1037B00010952095309503C000E010E09801C69563
:1037C000C695C370BC01CD01602B712B822B932B4E
:1037D000C23049F058F4C13019F00E94DA218EC08D
:1037E0000E94C8218BC00E94EC2188C00E943B210E
:1037F00085C0CF70DD2339F08C2F0E946121802F8E
:103800000E94781A7BC0802F0E947F1A8C2F0E9402
:10381000822174C0023F01F128F4003F41F0013FD2
:10382000A1F03FC0033FF9F0043F39F13AC0DD2376
:1038300041F0153008F05EC08C2F8F710E94A721D7
:1038400059C0163008F056C0F7CFDD2339F08C2F61
:103850008F710E9461214EC0DD23C9F38C2F8F71BF
:103860000E94822147C0DD2329F08C2F8F710E9496
:103870004C2140C00E9447213DC0DD2349F0CF715B
:103880008C2F0E94612163E08C2F0E945A2332C04A
:1038900081E00E946F23123068F182E00E946F2362
:1038A00029C0DD2331F0112391F2802F0E9453199A
:1038B00021C0112399F2093349F49FEFE7EEF3E0B9
:1038C0009150E040F040E1F700C00000802F0E94DE
:1038D000FD1910C04C2F4F70602FC7010E941004BB
:1038E0000E9472200FC04C2F4F70602FC7010E94A2
:1038F000130408C088EF8C0D843020F40E94F41764
:103900000E940704DD20C9F00E94CC2280FD15C072
:10391000F70112820E94C6220E946121C7010E9403
:10392000BE1C0E94C622DF91CF911F910F91FF9084
:10393000EF90DF90CF900C948221DF91CF911F9177
:103940000F91FF90EF90DF90CF9008950F931F930A
:10395000CF93DF93EC01688179818A810E94A32251
:103960008C010E94FE210E94EF20B801CE010E942E
:10397000861ADF91CF911F910F910895CF93DF9316
:10398000EC01988189812B813C81232B31F08F3F81
:1039900031F481E09F3F19F403C081E001C080E071
:1039A00080FD19C0CE010E94B70381110CC00E9496
:1039B000D022882381F08A81882369F082E0DF9118
:1039C000CF910C946F23CE010E94A61CCE01DF91F3
:1039D000CF910C948C03DF91CF9108950E94F72230
:1039E0000E9407230E9425230E9478280E944727CF
:1039F00080E090E00E94191880E090E00C942F186D
:103A00008091D9019091DA010E9482240C94EE1CDD
:103A10000E94E7220C94001DE92FE295EF704E2FD3
:103A200050E0FA013297EE30F105B0F4E156FF4F65
:103A30000C94842F803F91F018F4883E68F40EC0F7
:103A4000843F51F40BC0883E48F0813F29F406C002
:103A500093FB882780F9089580E0089581E0089518
:103A60000E9498220E940C1D0895CF93DF9300D0EE
:103A700000D01F92CDB7DEB70F900F900F900F9030
:103A80000F90DF91CF910895CF93DF9300D000D0B6
:103A900000D0CDB7DEB726960FB6F894DEBF0FBEC6
:103AA000CDBFDF91CF9108951F93CF93DF93C09146
:103AB000B80216E08091B902C81799F0D0E01C9FB7
:103AC000F0011D9FF00D1124E654FD4F40815181FE
:103AD00062817381848195810E94441D2196C77003
:103AE000E9CFDF91CF911F9108954091EA02509163
:103AF000EB026091EC027091ED028091EE029091E8
:103B0000EF020C94441D0F931F93CF93DF9380918A
:103B1000EF0282958F7009F05DC08091EC028823DE
:103B200009F458C08091B8021091B9026091EA027C
:103B30007091EB02C091ED02D091EE0291E06F3FE7
:103B400009F090E0292F06E0811709F443C020977F
:103B500021F07F3F21F030E003C031E001C0322F7F
:103B600090E030FD34C0089FF001099FF00D112452
:103B7000DF01A654BD4F11963C911197371327C012
:103B80003C91361324C012963C91129731111FC0FC
:103B900013964D915C9114974C1B5D0B483C51055D
:103BA000B0F48091EF028F7080618093EF02E15456
:103BB000FD4F80818F70806180838AEE92E00E9449
:103BC000BE1CDF91CF911F910F910C94541D019653
:103BD0008770BACFDF91CF911F910F9108959F9277
:103BE000AF92BF92CF92DF92EF92FF920F931F930B
:103BF000CF93DF93CDB7DEB761970FB6F894DEBFF2
:103C00000FBECDBF8C0185E0F801DE011D9601904D
:103C10000D928A95E1F7F80140815181E2809091FF
:103C2000EA026091EB022091ED023091EE02211543
:103C3000310531F06F3F31F481E09F3F19F403C04B
:103C400081E001C080E0F82FF1709F2E80FD46C119
:103C5000F801A380B4808AEEC82E82E0D82EF090BE
:103C6000EC02F501E21BF30BFF2009F4DFC08091A9
:103C7000EF02E83CF10508F09BC0282F207F09F0F7
:103C800052C0561313C0491311C0FE2CE1100EC0D0
:103C90008F7080618093EF020E94751DC6010E94A3
:103CA000BE1C8091EF02F801858358C1AB2831F02A
:103CB0005F3F31F481E04F3F19F403C081E001C060
:103CC00080E080FD03C081E08E2502C080E090E0AE
:103CD000F82FF170FF2E80FF1CC08091B802209158
:103CE000B90236E0821709F417C190E0389FF0015D
:103CF000399FF00D1124E654FD4F6181561306C023
:103D00006081461303C06281E61203C0019687708A
:103D1000E9CFFE2CEE2009F421C18091EF028160F1
:103D20008093EF025AC0561306C0491304C0E11035
:103D300002C0F8019FC04D875E878D859E850E94D9
:103D4000301D882379F1EE2069F12091EF02822F56
:103D500082958F7090E0029774F08091EA029091C2
:103D6000EB0298878F831986BB86AA862C87CE01A3
:103D700007960E94BE1C86E0F801AAEEB2E0019010
:103D80000D928A95E1F70E94831D0E94751D0DC05A
:103D9000561729F14D875E878D859E850E94301DBF
:103DA00081112CC0C8010E94BE1CFF24F394D6C010
:103DB000282F207F69F77A2DB98AA88A6E2D8989E4
:103DC0000E94351D8AEE92E00E94BE1C86E0F6013C
:103DD00011928A95E9F70E94751DF12CBFC0491315
:103DE000D9CFE110D7CFF8018583C8010E94BE1C4E
:103DF00086E0F60111928A95E9F7B0C0EE2091F2C3
:103E00002091EF02822F82958F7090E002970CF440
:103E1000B2CF8091EA029091EB029A8389831B8250
:103E2000BD82AC822E83CE010196A3CFE83CF10582
:103E300008F047C0FE2CEE2009F4B4CF561330C072
:103E400049132EC02091EF0220FD21C0822F8295C0
:103E50008F70482F50E041155105C9F0F8012583B6
:103E60004F30510541F08F5F982F9295907F822FB0
:103E70008F70892B8583C8010E94BE1C86E0F801E3
:103E8000AAEEB2E001900D928A95E1F742C086E079
:103E9000F801AAEEB2E001900D928A95E1F75EC0BA
:103EA0004D875E878D859E850E94301D811163CF71
:103EB0008091EF0281608093EF02C8010E94BE1CD6
:103EC0004DC07A2DB98AA88A6E2D89890E94351D28
:103ED00086E0F60111928A95E9F71BC0EE2009F4FD
:103EE00061CF4D875E878D859E850E94301DF82E9F
:103EF000882309F457CF86E0F801AAEEB2E00190DA
:103F00000D928A95E1F78AEE92E00E944D190E9487
:103F1000831D0E94751D22C04D875E878D859E85FD
:103F20000E949822292F22952F70223028F49F700A
:103F300039F0811105C00BC0243028F49F7049F47A
:103F4000805E883020F0C8010E94BE1C9F2CF92C96
:103F500005C0F8019581907F99F7F9CF8F2D619673
:103F60000FB6F894DEBF0FBECDBFDF91CF911F918A
:103F70000F91FF90EF90DF90CF90BF90AF909F9008
:103F8000089588EC90E008951F93CF93DF93CDB709
:103F9000DEB72C970FB6F894DEBF0FBECDBF4F83B0
:103FA000588769877A878B879C87CE0107960E94FE
:103FB000EF1D8823D1F09F8188852A853B85232B9F
:103FC00031F08F3F31F481E09F3F19F403C081E06D
:103FD00001C080E080FD47C04F81588569857A85A2
:103FE0008B859C850E94441D3EC086E0FE0137966D
:103FF000DE01119601900D928A95E1F7FF81E88527
:104000006A857B856115710531F0EF3F31F481E000
:10401000FF3F19F403C081E001C080E080FD23C0B0
:104020002091B90230E0C90101968770992740912B
:10403000B80250E084179507F1F1F983EA837D8394
:104040006C8396E0929FD001939FB00D1124A654EB
:10405000BD4FFE01319601900D929A95E1F7809344
:10406000B9020E94541D16E08091B8029091B902E5
:10407000891771F1189FC001112486549D4F0E9429
:10408000EF1D882329F1E091B8021E9FF001112451
:10409000E654FD4F40815181628173818481958115
:1040A0000E94441D8091B80290E001968770992784
:1040B0008093B802D9CF0E94081D1092B9021092C5
:1040C000B802EAEEF2E086E0DF011D928A95E9F798
:1040D0002C960FB6F894DEBF0FBECDBFDF91CF9107
:1040E0001F910895EF92FF920F931F93CF93DF9349
:1040F0008C01892B09F46CC0F12CEE24E394E801C7
:104100002196F8018491843740F4843008F051C03E
:10411000813081F0823019F15BC0853709F444C0E9
:10412000A8F19CE7980F903708F052C08F770E9453
:10413000FD1941C00E5F1F4FFE01849190E2980F60
:10414000983050F48770FE2D01C0FF0F8A95EAF772
:104150008F2F0E94FA2214C00E9453192DC00E5FA7
:104160001F4FFE01849190E2980F983060F48770A1
:10417000FE2D01C0FF0F8A95EAF78F2F0E940023C2
:104180000E94252319C00E94FD1916C00E5F1F4F03
:10419000FE01C491CC2381F08FE99FE00197F1F7F4
:1041A00000C00000C150F6CF0E5F1F4FFE01F4901B
:1041B00003C00E9453198E018F2D882309F49FCFCD
:1041C000EFE9FFE03197F1F700C000008150F5CF33
:1041D000DF91CF911F910F91FF90EF900895089577
:1041E00008950C94F0200C94F1200E94F320609329
:1041F00012037093130380931403909315030C948C
:10420000EE1C0C94F5200F931F9300911203109154
:1042100013032091140330911503602B712B822B13
:10422000932B1F910F910C94F5200F931F930091E6
:10423000120310911303209114033091150360238E
:104240007123822393231F910F910C94F5200F93D8
:104250001F930091120310911303209114033091C6
:10426000150360277127822793271F910F910C94C4
:10427000F5200C94F0200E94392160930E03709376
:104280000F0380931003909311030C94EE1C60E0D5
:1042900070E0CB010C943B210F931F9341E050E061
:1042A00060E070E08A019B0104C0000F111F221F13
:1042B000331F8A95D2F7C901B8011F910F910C9451
:1042C0003B210F931F9341E050E060E070E004C099
:1042D000440F551F661F771F8A95D2F780910E03F2
:1042E00090910F03A0911003B09111038A019B01DB
:1042F000082B192B2A2B3B2BC901B8011F910F91B9
:104300000C943B210F931F9341E050E060E070E07C
:1043100004C0440F551F661F771F8A95D2F740953A
:1043200050956095709580910E0390910F03A09128
:104330001003B09111038A019B01082319232A233A
:104340003B23C901B8011F910F910C943B210F939E
:104350001F9341E050E060E070E004C0440F551F3F
:10436000661F771F8A95D2F780910E0390910F03F5
:10437000A0911003B09111038A019B01082719270E
:104380002A273B27C901B8011F910F910C943B21AB
:104390000F931F9300910E0310910F0320911003B0
:1043A00030911103602B712B822B932B1F910F9156
:1043B0000C943B210F931F9300910E0310910F0358
:1043C00020911003309111036023712382239323E2
:1043D0001F910F910C943B210F931F9300910E039B
:1043E00010910F0320911003309111036027712762
:1043F000822793271F910F910C943B2108952CE065
:10440000929F800D1124E82FE695E695E69587703A
:1044100051E001C0550F8A95EAF785E0E89FF00169
:104420001124E051FD4F20E030E070E04081CB01ED
:10443000022E02C0969587950A94E2F781708195C5
:1044400084278523842781932F5F3F4F25303105B3
:1044500069F708952CE0929F800D1124682F6695CE
:1044600066956695982F977085E0689FB001112436
:1044700040E050E080E0FB01E40FF51FE051FD4F0C
:10448000208130E0092E02C0369527950A94E2F784
:1044900021703327042E01C0220F0A94EAF7822BE1
:1044A0004F5F5F4F4530510531F70895BF92CF926E
:1044B000DF92EF92FF920F931F93CF93DF938C01C4
:1044C000C0900E03D0900F03E0901003F090110302
:1044D0008091120390911303A0911403B0911503DE
:1044E000C82AD92AEA2AFB2ACFE1D0E0D701C6019F
:1044F0000C2E04C0B695A795979587950A94D2F788
:1045000080FD04C0219790F7B12C07C0BC2EB801E4
:104510008C2F0E942F040197A9F38B2DDF91CF914F
:104520001F910F91FF90EF90DF90CF90BF90089573
:10453000CF93DF93EC010E945622BE010E942F040C
:10454000DF91CF9108951F93CF93DF93EB0190916B
:10455000B702992321F0CB010E94982213C088232F
:1045600049F0CB010E945622182F682FCE010E94DD
:10457000FF2104C0CB010E942A22182FBE01812FE7
:104580000E942F04DF91CF911F910895809116030F
:104590008595859585950895809116038770089572
:1045A00090911603977081E009F480E0089580915E
:1045B0002203089590912203892B8093220308956A
:1045C000809590912203892380932203089510926D
:1045D0002203089590912103892B8093210308954C
:1045E000809590912103892380932103089510924F
:1045F0002103089590912003892B8093200308952F
:104600008095909120038923809320030895109230
:104610002003089580911703089508950C940D23A5
:104620000C940E2390911703981721F08093170391
:104630000C941023089580911703882329F0109279
:10464000170380E00C9410230895E091D901F091B4
:10465000DA01809122038083E091D901F091DA019F
:10466000908180912103892B8083E091D901F09181
:10467000DA01908180912003892B80838091170338
:10468000882381F0E091D901F091DA019081892BA2
:1046900080838091D9019091DA010E943C2481119C
:1046A0000E941B238091D9019091DA010C9400188B
:1046B0000C940D2398E0899F90011124262B2093C0
:1046C00016030E9461218091160385958595859535
:1046D0000C9458231092160380E00C9458232091D8
:1046E00016038095822380931603982F977079F490
:1046F00030E0482F082E000C550B2417350739F0F1
:104700008595859585950E9482210C946A2308954C
:104710006FEF7FEF80E090E00C945D3080E090E000
:104720000E94293021E08C3E9E4F09F020E0822F2C
:10473000089582E090E00C94213083E090E00C94A6
:104740002130CF9384E090E00E942130C82F81E295
:1047500090E00E9421302C2F30E0A901582BCA0193
:10476000CF910895CF93C92F682F84E090E00E94E5
:104770003F306C2F81E290E0CF910C943F30AB0141
:10478000BC018FE090E00C945130AB01BC0183E19F
:1047900090E00C94513060E070E0CB010C94C523A4
:1047A00060E070E0CB010E94BF230C94CB236CEE41
:1047B0007EEF80E090E00E945D3060E082E090E07B
:1047C0000E943F3060E083E090E00E943F30109212
:1047D000120310921303109214031092150360E059
:1047E00084E090E00E943F3060E081E290E00E942F
:1047F0003F3060E085E090E00E943F3060E086E07E
:1048000090E00E943F306FEF87E090E00E943F30E1
:1048100040E050E0BA0188E090E00E94513060E052
:104820008DE090E00E943F3040E050E0BA0188E126
:1048300090E00E94513060E087E190E00E943F30BC
:1048400040E050E0BA018CE190E00E94513060E01D
:1048500080E290E00E943F3040E050E0BA0188E101
:1048600090E00E9451300C94D0230C94D723682FF1
:104870008EE090E00C943F30FC01329697E080E0AF
:10488000915029F021912223D9F38F5FF9CF089518
:10489000662349F0FC01329608962191621729F0AF
:1048A000E817F907D1F780E0089581E008959C01A9
:1048B000FC0132969FEF80E04191461789F09F3FBF
:1048C00019F4411101C0982F8F5F8630A9F79F3FDF
:1048D00039F0F901E90FF11D97FDFA95628308950A
:1048E00008959C012A5F3F4FFC014281461301C09D
:1048F0001282019682179307B9F708950C945724F2
:104900000C947124029626E0FC0111922A95E9F795
:10491000089508950C9489240C948924CF930E94BF
:104920008C240E948F060E948A24C0E08C2F0E9453
:104930001E06892B29F4CF5FC430C1F780E001C087
:1049400081E0CF9108950C9489240C94A3240E94B3
:10495000A52480912704843049F11092240320E497
:1049600088E190E00FB6F894A895809360000FBEA0
:104970002093600080E00E9407040E94A52483B772
:10498000817F846083BF83B7816083BF789488957B
:1049900083B78E7F83BF0FB6F894A895809160008F
:1049A000886180936000109260000FBE08950C949F
:1049B00089240E94081D0E94F4170E9407040C9489
:1049C000D7241F920F920FB60F9211248F939F93AB
:1049D000AF93BF9380912403811113C080911D0474
:1049E00090911E04A0911F04B09120044196A11D36
:1049F000B11D80931D0490931E04A0931F04B093D7
:104A00002004BF91AF919F918F910F900FBE0F9097
:104A10001F90189582E084BD93E095BD9AEF97BDF5
:104A200080936E0008952FB7F89480911D049091A3
:104A30001E04A0911F04B09120042FBF08952FB72A
:104A4000F89460911D0470911E0480911F04909150
:104A500020042FBF08959C014FB7F89480911D0446
:104A600090911E04A0911F04B09120044FBF821B9F
:104A7000930B0895CF92DF92EF92FF922FB7F894A5
:104A8000C0901D04D0901E04E0901F04F0902004FC
:104A90002FBFA7019601261B370B480B590BCA01E4
:104AA000B901FF90EF90DF90CF90089578941F9216
:104AB0000F920FB60F9211248F939F93AF93BF93D2
:104AC00080911D0490911E04A0911F04B0912004B8
:104AD0000196A11DB11D80931D0490931E04A09307
:104AE0001F04B0932004BF91AF919F918F910F90BD
:104AF0000FBE0F901F90189581E08093E00080E238
:104B00008093D8001092C9008FE19EE40197F1F7DD
:104B100000C0000087E090EBDC01809330049093AC
:104B20003104A0933204B09333049CE088E10FB6C3
:104B3000F894A895809360000FBE90936000FFCF1B
:104B40000C9488230E948F068FE39CE90197F1F76C
:104B500000C000000E948F0680E00E941E0680FFB9
:104B600004C00E94A0250C947C2508950E948E23E9
:104B7000811102C00E9435240E949923809323034F
:104B80000E94A12390932204809321040E949D23DC
:104B9000682F70E080E090E00E94012160910E0398
:104BA00070910F0380911003909111030C9439219F
:104BB00080912B0380FF0BC06091E00185E0689F2E
:104BC000B001112475956795759567952BC081FF88
:104BD00009C06091E00185E0689FB00111247595DE
:104BE000679520C082FF07C06091E00185E0689F63
:104BF000B001112417C090912A039923D1F060913C
:104C0000DF01961788F72091E00185E0289F900149
:104C10001124929FA001939F500D112470E0CA01AE
:104C20000E94512F6038710540F46115710519F427
:104C300006C065E070E0862F08958FE7089581E053
:104C4000089580912B0380FF08C06091DC0170E023
:104C5000759567957595679521C081FF06C0609130
:104C6000DC0170E07595679519C082FF04C0609102
:104C7000DC0170E010C090912903992399F06091B4
:104C8000DB019617A0F78091DC01899FC0011124F8
:104C900070E00E94512F6038710540F46115710574
:104CA00019F406C061E070E0862F08958FE708953B
:104CB00081E00895803F21F40E94D825819504C0A9
:104CC000813F29F40E94D82580932F030895823FC5
:104CD00021F40E94D825819504C0833F29F40E94C5
:104CE000D82580932E030895893F19F40E94212628
:104CF00005C08A3F31F40E942126819580933003BC
:104D000008958B3F21F40E942126819504C08C3F99
:104D100029F40E942126809331030895843F21F4D1
:104D200080912D03816017C0853F21F480912D0370
:104D3000826011C0863F21F480912D0384600BC0F6
:104D4000873F21F480912D03886005C0883F31F4AE
:104D500080912D03806180932D0308958D3F21F470
:104D600080912B0381600BC08E3F21F480912B0337
:104D7000826005C08F3F29F480912B03846080936B
:104D80002B030895803F39F480912F0387FF6AC079
:104D900010922F0367C0813F29F480912F031816CA
:104DA000BCF360C090912E03823F29F497FF5AC054
:104DB00010922E0357C0833F19F41916CCF352C03A
:104DC00090913003893F31F419160CF04BC01092CA
:104DD000300348C08A3F19F497FF44C0F8CF8B3F97
:104DE00039F48091310387FF3DC0109231033AC0FE
:104DF0008C3F29F4809131031816BCF333C0843FF3
:104E000021F480912D038E7F17C0853F21F480917E
:104E10002D038D7F11C0863F21F480912D038B7F60
:104E20000BC0873F21F480912D03877F05C0883F09
:104E300031F480912D038F7E80932D0313C08D3F1D
:104E400021F480912B038E7F0BC08E3F21F4809143
:104E50002B038D7F05C08F3F29F480912B038B7F1F
:104E600080932B0380912E03811106C080912F0324
:104E7000811102C010922A0380913003811106C073
:104E800080913103811102C01092290308950E947C
:104E9000132520912E03211104C020912F032223DA
:104EA00021F0909328038093270320913003211150
:104EB00004C020913103222321F090932603809394
:104EC00025038CE293E00C940B18EF92FF920F9362
:104ED0001F93CF93DF9300D000D000D0CDB7DEB7C3
:104EE00086E0ECE2F3E0DE01119601900D928A95E6
:104EF000E1F7E0902E03F0902F0300913003109122
:104F0000310310922E0310922F031092300310924F
:104F10003103E11003C0FF2009F45DC08091270335
:104F2000909128030E942B25AC0190912A0399238C
:104F300039F02091E10130E02417350758F04BC0DB
:104F40002091E2018AE0289F90011124241735075F
:104F500018F041C09F3F19F09F5F90932A03EE2005
:104F600061F00E94D8251E1414F09FEF01C091E05B
:104F7000989F902D112490932E03FF2061F00E94A2
:104F8000D8251F1414F09FEF01C091E0989F902D39
:104F9000112490932F0330912E033323E1F02091BD
:104FA0002F032223C1F045EB3403C00111249923C0
:104FB00019F090932E0303C081E080932E0335EB0C
:104FC0002303C0011124992319F090932F0303C0E8
:104FD00081E080932F03011103C0112309F45DC008
:104FE00080912503909126030E942B25AC0190917E
:104FF0002903992339F02091DD0130E0241735078A
:1050000058F04BC02091DE018AE0289F90011124C6
:105010002417350718F041C09F3F19F09F5F909308
:105020002903002361F00E942126101614F09FEF3F
:1050300001C091E0989F902D11249093300311238B
:1050400061F00E942126111614F09FEF01C091E03B
:10505000989F902D11249093310330913003332386
:10506000E1F0209131032223C1F045EB3403C0016C
:105070001124992319F09093300303C081E08093A9
:10508000300335EB2303C0011124992319F09093C9
:10509000310303C081E08093310380912E0381119D
:1050A0000BC080912F03811107C0809130038111C3
:1050B00003C08091310381110E944727EB82FC825B
:1050C0000D831E8386E0FE013196ACE2B3E00190D1
:1050D0000D928A95E1F726960FB6F894DEBF0FBEC3
:1050E000CDBFDF91CF911F910F91FF90EF90089569
:1050F000ECE2F3E086E0DF011D928A95E9F7109279
:105100002A031092290310922B03089580913A03E9
:105110000895CF93DF9300D01F92CDB7DEB7909163
:105120002704943019F589837B836A8382E0809316
:10513000E9008FEF9091E800815095FD06C095ED54
:105140009A95F1F700008111F5CF8091E80085FF75
:105150000DC040E050E063E070E0CE0101960E9497
:105160009F2A8091E8008E778093E8000F900F903F
:105170000F90DF91CF910895BC0184E00C948928B1
:10518000BC0183E00C94892822E02093E9002FEFF2
:105190003091E800215035FD06C035ED3A95F1F724
:1051A00000002111F5CF2091E80025FF0BC040E061
:1051B00050E066E070E00E949F2A8091E8008E77C0
:1051C0008093E8000895CF93DF9321E02093E900D6
:1051D0002FEF3091E800215035FD06C035ED3A95AE
:1051E000F1F700002111F5CF2091E80025FF14C050
:1051F000EC0140E050E068E070E00E949F2A80915E
:10520000E8008E778093E80088E0FE01A2E3B3E037
:1052100001900D928A95E1F7DF91CF9108958091E9
:105220002604811109C00E94302C0E948D2C80918F
:10523000E20084608093E2000895109226040895AD
:10524000089508950C94D92442E061EC81E00E9415
:10525000A92B42E261EC82E00C94A92B80912904F5
:10526000833009F460C030F4813071F0823009F489
:1052700099C008958A3009F485C08B3009F46BC059
:10528000893009F0A7C020C080912804813A09F034
:10529000A1C08091E800877F8093E80080912C0472
:1052A00090912D04892B21F468E082E393E003C000
:1052B00060E080E090E070E00E94EA2A8091E800DF
:1052C0008B778093E800089580912804813209F05B
:1052D00081C080912C0490912D04029708F07AC02F
:1052E0008091E800877F8093E8008091E80082FD4C
:1052F00005C0809127048111F8CF6CC02091F30084
:105300008091F20090E0922B029729F48091F100B5
:105310008B7F813021F48091F10080933A0380915A
:10532000E8008B7753C080912804813A09F052C07D
:1053300080912C0490912D04892B09F04BC0809111
:10534000E800877F8093E8008091E80080FFFCCF31
:105350008091ED0136C0809128048132D9F5809189
:105360002C0490912D04892BA9F58091E800877F6A
:105370008093E8000E94DE2B80912A048093ED0147
:105380000C94081D80912804813221F58091E80059
:10539000877F8093E8000E94DE2B80912B0480930E
:1053A0003B03089580912804813AA1F48091E8009C
:1053B000877F8093E8008091E80080FFFCCF809198
:1053C0003B038093F1008091E8008E778093E800A2
:1053D0000C94DE2B089584B7877F84BF0FB6F894B2
:1053E000A8958091600088618093600010926000B1
:1053F0000FBE90E080E80FB6F89480936100909320
:1054000061000FBE0E945D180E94302C0E948D2CFE
:105410008091E20084608093E20078940E94222FC1
:105420000E94631883EE91E00E94EF178091270499
:10543000853069F40E94A724809125048823B1F364
:105440000E948E24882391F30E94892AEFCF0E9424
:105450006B180E9451180E945018E8CF0C94302A03
:10546000292F332723303105C9F060F4213031056D
:1054700081F02230310509F044C08BE390E02EEE3C
:1054800034E043C021323105E1F02232310549F1E7
:1054900038C082E190E029E235E037C099278130B9
:1054A000910549F028F0029761F5EEEAF4E005C0B5
:1054B000EAEEF4E002C0E2EDF4E0849190E09F01B6
:1054C00024C06115710541F061307105D1F489E0A6
:1054D00090E029E135E019C089E090E020E035E076
:1054E00014C06115710541F06130710551F481E816
:1054F00090E02BE335E009C080E490E02CEB35E050
:1055000004C080E090E020E030E0FA0131832083A5
:10551000089580E189BD82E189BD09B400FEFDCF17
:105520008091D8008F7D8093D8008091E0008260C8
:105530008093E0008091E00081FDFCCF0895CF9240
:10554000DF92EF92FF920F931F93CF93DF93EC01C3
:105550008B017A010E94FD2B811133C0E114F1040B
:1055600039F0F70180819181081B190BC80FD91FF1
:10557000C12CD12C0115110519F18091E80085FD90
:1055800016C08091E8008E778093E800E114F10462
:1055900049F0F70180819181C80ED91ED182C08265
:1055A00085E00FC00E94FD2B882321F30AC089915A
:1055B0008093F10001501109FFEFCF1ADF0ADACF13
:1055C00080E0DF91CF911F910F91FF90EF90DF90DE
:1055D000CF90089520912E0430912F04261737077D
:1055E00048F06115710539F42091E8002E77209379
:1055F000E80001C0B901FC0120E06115710579F1F5
:10560000809127048823F1F18530F1F18091E80041
:1056100083FD3CC08091E80082FD2EC08091E800AF
:1056200080FFEBCF2091F3008091F20090E0922B6D
:105630006115710551F08830910538F4219120935E
:10564000F100615071090196F3CF21E0089709F04C
:1056500020E08091E8008E778093E800CECF211182
:10566000CFCF0AC080912704882361F0853061F094
:105670008091E80083FD0AC08091E80082FFF2CFAC
:1056800080E0089582E0089583E0089581E0089520
:1056900020912E0430912F042617370748F061150A
:1056A000710539F42091E8002E772093E80001C0BD
:1056B000B901FC0120E06115710591F18091270489
:1056C000882309F440C0853009F43FC08091E80088
:1056D00083FD3DC08091E80082FD2FC08091E800ED
:1056E00080FFE9CF2091F3008091F20090E0922BAF
:1056F0006115710559F08830910540F4249120938B
:10570000F1003196615071090196F2CF21E00897BE
:1057100009F020E08091E8008E778093E800CBCFFD
:105720002111CCCF0AC080912704882361F08530F5
:1057300061F08091E80083FD0AC08091E80082FF5B
:10574000F2CF80E0089582E0089583E0089581E03B
:105750000895982F973068F59093E900981739F0DD
:105760007091EC002091ED005091F00003C0242FC7
:10577000762F50E021FD02C09F5FECCF3091EB000F
:105780003E7F3093EB003091ED003D7F3093ED0094
:105790003091EB0031603093EB007093EC0020937C
:1057A000ED005093F0002091EE0027FDE5CF80E062
:1057B00008958F708093E90081E008958091280416
:1057C00087FF11C08091E80082FD05C08091270409
:1057D0008111F8CF11C08091E8008B770BC08091C8
:1057E0002704882349F08091E80080FFF8CF80915A
:1057F000E8008E778093E80008952091E4003091CE
:10580000E50095E64091EC00842F817040FF23C0B5
:105810008091E80080FD1DC080912704882399F0C5
:10582000853099F08091EB0085FD11C04091E40036
:105830005091E5002417350729F3915011F09A0192
:10584000E1CF84E0089582E0089583E0089581E047
:10585000089580E008954091E80042FFDDCF08956B
:105860000E949E2C0E94A62CE0EEF0E080818160D8
:105870008083E8EDF0E080818F77808319BCA7ED0D
:10588000B0E08C918E7F8C9380818F7E808310928C
:10589000260408950F931F93CF93DF930E949E2CAD
:1058A0000E94A62CC8EDD0E088818F7788838881FC
:1058B0008068888388818F7D888319BC1092270433
:1058C00010922304109225041092240400EE10E09C
:1058D000F80180818B7F808388818160888342E0AA
:1058E00060E080E00E94A92BE1EEF0E080818E7FF5
:1058F0008083E2EEF0E08081816080838081886037
:105900008083F80180818E7F808388818061888395
:10591000DF91CF911F910F910895E8EDF0E0808124
:105920008F7E8083E7EDF0E080818160808384E07A
:1059300082BF81E0809326040C944A2CE8EDF0E0CD
:1059400080818E7F80831092E20008951092DA00A9
:105950001092E10008951F920F920FB60F9211243A
:105960002F933F934F935F936F937F938F939F9367
:10597000AF93BF93EF93FF938091E10082FF0BC041
:105980008091E20082FF07C08091E1008B7F8093CD
:10599000E1000E94212F8091DA0080FF1FC08091DA
:1059A000D80080FF1BC08091DA008E7F8093DA00E0
:1059B0008091D90080FF0DC080E189BD82E189BD61
:1059C00009B400FEFDCF81E0809327040E940F29D7
:1059D00005C019BC109227040E941D298091E10086
:1059E00080FF19C08091E20080FF15C08091E20025
:1059F0008E7F8093E2008091E20080618093E200DC
:105A00008091D80080628093D80019BC85E0809393
:105A100027040E9421298091E10084FF30C08091F9
:105A2000E20084FF2CC080E189BD82E189BD09B418
:105A300000FEFDCF8091D8008F7D8093D8008091AB
:105A4000E1008F7E8093E1008091E2008F7E809361
:105A5000E2008091E20081608093E2008091230463
:105A6000882311F084E007C08091E30087FD02C025
:105A700081E001C083E0809327040E942229809165
:105A8000E10083FF29C08091E20083FF25C080915F
:105A9000E100877F8093E10082E0809327041092E9
:105AA00023048091E1008E7F8093E1008091E200E9
:105AB0008E7F8093E2008091E20080618093E2001B
:105AC00042E060E080E00E94A92B8091F0008860B5
:105AD0008093F0000E942029FF91EF91BF91AF9138
