:100000000C94F7030C943E040C943E040C943E04B0
:100010000C943E040C943E040C943E040C943E0458
:100020000C943E040C943E040C94382A0C940A2B35
:100030000C94301F0C943E040C943E040C943E042B
:100040000C943E040C943E040C943E040C943E0428
:100050000C943E040C947D1F0C943E040C943E04BE
:100060000C943E040C943E040C943E040C943E0408
:100070000C943E040C943E040C943E040C943E04F8
:100080000C943E040C943E040C943E040C943E04E8
:100090000C943E040C943E040C943E040C943E04D8
:1000A0000C943E040C943E040C943E04660F690FBD
:1000B000710F760F7B0F800F850F8A0F8F0F940FB4
:1000C000990F9E0FA00FA30FA60FA90FAC0FAF0F94
:1000D000B10FB60F07150715391539158615A41573
:1000E000C516C516AF15441655165516B516C516C0
:1000F000C516BE1665176517771777176E1777172A
:1001000077177717651765177317771777177317AB
:10011000772B9E2B962C9E2B962CEA2B0D2C962C17
:10012000642C732C00431E001F00200021002200BD
:10013000F500F600F4002300240025002600270027
:100140002A00290014001A000800150017005F009B
:10015000600061001C0018000C00120013002A004F
:100160002B4204001600070009000A005C005D0035
:100170005E000B000D000E000F0033003400E100A4
:100180001D001B0006001900050059005A005B0005
:10019000110010003600370038002800E000E200AF
:1001A000E300004500412C002C0062002C002C00D4
:1001B00000445000510052004F00000000000000B9
:1001C000000000000000000000000000000000002F
:1001D0000000000000004C0035001E001F00200041
:1001E0002100220000000000000023002400250060
:1001F000260027004C0000002F000000560057008A
:10020000260200000000000027022D002E002F0013
:100210003000310000003602000000002D022F02E5
:100220000000000000003002000000000000370263
:1002300000000000000000000000000000000000BE
:1002400000000000000000004A004E004B004D007E
:10025000000000000000000000000000000000009E
:10026000000000000000000000000000000000008E
:10027000000000000000000000000000000000007E
:100280005F006000610057005500000000000000A2
:1002900000000000000000000000000000005C0002
:1002A0005D005E00560054000000000000000000E9
:1002B00000000000000000000000000059005A008B
:1002C0005B00670028000000000000000000000044
:1002D0000000000000000000000062006300000059
:1002E0000000000000000000005C000000000000B2
:1002F0000000000000000000000000000000C15CE1
:10030000C45CC55C000000000000000000000000AC
:10031000000000000000000000000000C25CCA5C99
:10032000CB5C0000000000000000000000000000A6
:1003300000000000000000000000C05CC65CC75C5C
:1003400000000000000000000000000000000000AD
:1003500000000000000000000000C85CC95C000054
:10036000000000000000000000000000000000008D
:100370000000000000000000CC5CCD5C000000002C
:10038000000000000000000000000000000000006D
:100390000000000000000000000035021E021F02E5
:1003A0002002210222020000000000002302240299
:1003B0002502260227024C0000003A003B003C00C8
:1003C0003D003E003F000000000000002D022E0214
:1003D0002F02300231020000400041004200430081
:1003E0004400450000000000000000000000000084
:1003F00000000000000000000000000000000000FD
:1004000000000000000000000000A800AA00A900F1
:10041000AB00000000000000000000000000000031
:1004200000000000000000000000000000000000CC
:1004300000000000000000000000000000000000BC
:10044000000000000000520000000000B9000000A1
:10045000000000000000000000000000000000009C
:100460000000500051004F0000000000000000009C
:10047000000000000000000000000000000000007C
:100480000000B60000000000B700000000000000FF
:10049000000000000000000000000000000000005C
:1004A000FB00FA00F900FC0032190A00047F3F1F2C
:1004B000643214643214783C1E1E140A052223256B
:1004C0002628292A2C2D2F3032333536383A3B3D19
:1004D0003E4042434547494A4C4E50515355575967
:1004E0005A5C5E6062646668696B6D6F7173757784
:1004F000797B7D7F81838587898A8C8E9092949683
:10050000989A9C9E9FA1A3A5A7A8AAACAEAFB1B391
:10051000B4B6B8B9BBBCBEBFC1C2C3C5C6C7C9CAE1
:10052000CBCCCDCED0D1D2D2D3D4D5D6D7D7D8D9A3
:10053000D9DADADBDBDBDCDCDCDCDCDDDDDDDDDC01
:10054000DCDCDCDCDBDBDBDADAD9D9D8D7D7D6D513
:10055000D4D3D2D2D1D0CECDCCCBCAC9C7C6C5C3D5
:10056000C2C1BFBEBCBBB9B8B6B4B3B1AFAEACAA22
:10057000A8A7A5A3A19F9E9C9A98969492908E8CD2
:100580008A89878583817F7D7B79777573716F6DAC
:100590006B6968666462605E5C5A59575553515086
:1005A0004E4C4A4947454342403E3D3B3A3836353A
:1005B0003332302F2D2C2A292826252322FFAA7FEB
:1005C0005540000101010101010101010202020285
:1005D00002020202020303030303030303040404ED
:1005E00004040404050505050506060606060707B6
:1005F00007070708080808090909090A0A0A0B0B6E
:100600000B0C0C0C0D0D0D0E0E0E0F0F0F1010110C
:100610001111121213131414151516161717181892
:1006200019191A1A1B1B1C1D1D1E1E1F20202122FA
:1006300022232424252626272829292A2B2C2D2D40
:100640002E2F30313232333435363738393A3B3C5D
:100650003D3E3F404142434445464748494A4C4D50
:100660004E4F50515354555658595A5B5D5E5F6119
:100670006264656668696B6C6D6F707273757778AC
:100680007A7B7D7E8082838587888A8C8E8F91930A
:100690009596989A9C9EA0A2A3A5A7A9ABADAFB131
:1006A000B3B5B7BABCBEC0C2C4C6C9CBCDCFD1D416
:1006B000D6D8DBDDDFE2E4E7E9EBEEF0F3F5F8FABC
:1006C000FDFF0A03580044003700350000000C030A
:1006D00078006900750064006900000004030904E3
:1006E00009023B00020100A0FA0904000001030115
:1006F00001000921110100012240000705810308C2
:10070000000A090401000103000000092111010091
:10071000012281000705820320000A120110010056
:100720000000084478757501000102000105010907
:1007300002A10185020901A1000509190129051578
:10074000002501950575018102950175038101055B
:1007500001093009311581257F9502750881060947
:10076000381581257F950175088106050C0A380228
:100770001581257F950175088106C0C00501098096
:10078000A101850319012AB700150126B7009501BB
:1007900075108100C0050C0901A101850419012A09
:1007A000A002150126A002950175108100C0050167
:1007B0000906A101050719E029E71500250195089B
:1007C000750181029501750881010507190029FF4E
:1007D000150026FF009506750881000508190129F6
:1007E00005950575019102950175039101C01124CC
:1007F0001FBECFEFDAE0DEBFCDBF04B603FE27C0D9
:100800008091F3029091F402A091F502B091F6026A
:100810008730904BA740B04BD1F41092F302109266
:10082000F4021092F5021092F60214BE84B7877F8C
:1008300084BF0FB6F894A89580916000886180937A
:100840006000109260000FBEE0E0F8E3099511E04F
:10085000A0E0B1E0EEE6FCE502C005900D92A83DF7
:10086000B107D9F722E0A8EDB1E001C01D92A33F86
:10087000B207E1F70E9478270C94352E0C94000003
:100880002A9A0895229A0C9440048F9A0895879A80
:100890000C9445048C980895849A0C944A040E9400
:1008A00042040E9447040E944C040C94350781E0E6
:1008B000089581E008950C94590408950C945D0402
:1008C0001F93CF93DF9300D000D01F92CDB7DEB738
:1008D00049835A836B8330911A0289819A8131113D
:1008E00014C0662359F0222349F00E94A11C182F3E
:1008F000682F89819A810E944A1C03C00E94751C3E
:10090000182F69817A81812F04C00E94A11C6981FE
:100910007A810F900F900F900F900F90DF91CF91F1
:100920001F910C941805FC01262F40815181628192
:10093000738184810C946004CF93DF93EC0160E0B9
:100940000E949304BE01DF91CF910C945E040E943B
:10095000D31D811102C00E94841E0C944F040C947C
:10096000330708950E9453170E94B1042FEF84E3C8
:100970009CE0215080409040E1F700C000000C94C2
:10098000A31F0F931F93CF93DF93EC0161E00E94AD
:1009900093048C01BE010E945B04882379F1BE019F
:1009A000C8010E948310882349F1BE01C8010E943A
:1009B000D510882319F1BE01C8010E9400128823B6
:1009C000E9F0BE01C8010E944F0F8823B9F08A8167
:1009D000882369F001158CE5180731F00F3D1C459F
:1009E00031F40E94841E0AC00E94B20407C0CE01E6
:1009F000DF91CF911F910F910C94570480E0DF910C
:100A0000CF911F910F91089508950C94040581E0F2
:100A100008950C940705CF93C82F0E9405058C2FCD
:100A20000E940905CF91089580E090E0089508950F
:100A30002BE4829FC0011124FC012FE0729FE00D86
:100A4000F11D1124E60FF11DEE0FFF1FEC5DFE4FAF
:100A5000859194910895880F991FFC01E855FB4FEB
:100A6000859194910895CF93DF930E9418050E9479
:100A70004B06EC018115904508F041C0C11580E49A
:100A8000D80708F0D1C0C83ED10510F5C03ED10549
:100A900008F0FDC0C83AD10578F4C53AD10508F090
:100AA000A2C0C130D10509F4F2C008F4EEC0C430D0
:100AB000D10508F0ECC0E9C0CF3BD10508F49BC0DC
:100AC000C03CD10508F4E1C0CE01805C91099EC014
:100AD000C11590E2D90758F4C11521E0D20708F0FA
:100AE000D6C0C03FD10508F4D0C0D065D0C0C11574
:100AF00080E3D80708F08EC0CE019F7087C0C11573
:100B000095E5D90708F043C0C11524E5D20708F0E0
:100B1000A2C0C11582E5D80708F5C11591E5D9072E
:100B200008F085C0CE0174E0969587957A95E1F737
:100B300083709C2F937021E030E002C0220F331F9E
:100B40009A95E2F73C68382BCF70C695C69580E23F
:100B5000C89FE0011124C22BD32B99C09E012370A2
:100B600033278C2F86958695C115D34508F064C030
:100B7000C1E0D0E002C0CC0FDD1F2A95E2F720E2F1
:100B8000829FC0011124C82BD92BDC6880C0C115FD
:100B900029E5D207A0F4C11588E5D80708F060C0A0
:100BA000C11596E5D90708F070C08C2F0E94DF06AA
:100BB0008F71C82FD0E0DC2FCC27D06268C0C11560
:100BC0002AE5D20708F451C0CE0190568115904213
:100BD00008F05BC08D2F8F710E94DF06DD27D06289
:100BE0008F71D82B54C0C55AD0E0C65ADE4FC88189
:100BF000D0E0D0644CC0C85AD0E0CC0FDD1FC45D3B
:100C0000DE4F0990D881C02DD46441C00E942B05CD
:100C1000EC013DC0CE019927D3FF03C0EC01D86C95
:100C200036C0EC01D06C33C0DF70D06A30C0DC2F2E
:100C3000CC27C16FD06A2BC0C1E0D0E002C0CC0F7E
:100C4000DD1F2A95E2F720E2829FC0011124C82B04
:100C5000D92BDA681CC0DC2FCC27C46FD06A17C030
:100C6000DC2FCC27C06FD06A12C08C2F8F700E94EF
:100C7000DF0694E0D695C7959A95E1F7CF70D0E05E
:100C8000DC2FCC27D069C82B02C0C0E0D0E0CE0159
:100C9000DF91CF9108958238910569F1B0F48133E5
:100CA000910509F46DC048F48932910509F463C0D7
:100CB0008A32910509F469C008958533910509F4D4
:100CC00055C089339105B9F00895833E910569F1C6
:100CD00038F4803E9105B1F0823E910509F1089506
:100CE000863E9105A9F1873E9105B9F1843E9105B3
:100CF00009F064C023C02091E40220FD4FC021FD13
:100D00004DC008958091E40280FD44C08091E502C9
:100D100080FF44C08091E40284FD42C083EE4DC058
:100D20008091E40282FF38C0F5CF8091E40282FD19
:100D300033C08091E50280FD31C0ECCF8091E502A7
:100D400081FF32C08091E40284FD2AC087EE35C065
:100D50008091E40283FF26C0F5CF8091E40283FDF9
:100D600021C08091E50281FD1FC0ECCF8091E4029B
:100D700085FD1CC01DC08091E40285FD19C016C010
:100D80008091E40286FD16C017C08091E40286FDC2
:100D900013C010C089E311C082EE0FC080EE0DC0F9
:100DA00080E00BC086EE09C084EE07C089E205C072
:100DB00085E303C08AE201C081E390E00895909149
:100DC000E40292FF0DC0282F2871283019F4877F84
:100DD000846006C0282F2471243011F48B7F886032
:100DE00093FF0DC0282F2871283119F4877E846164
:100DF00006C0282F2471243111F48B7E8861209144
:100E0000E50220FF0DC0382F3871383019F4877F84
:100E1000816006C0382F3171313011F48E7F8860C7
:100E200021FF0DC0282F2871283119F4877E816198
:100E300006C0282F2171213111F48E7E886194FD26
:100E4000877E0895E82FF0E0EE0FFF1FE154FD4F7D
:100E5000808191810895089580EA8A95F1F7089537
:100E600008950C9430070C9431070C943007F894D3
:100E7000E82FE295EF70F0E031A1282F2F7081E08C
:100E800090E001C0880F2A95EAF7982F9095932358
:100E900091A392A1892B82A3789408950F931F9315
:100EA000CF93DF9380E90E94370781E90E943707DB
:100EB00082E90E94370783E90E94370785E90E948B
:100EC0003707CDE5D1E00CE611E089910E943707A4
:100ED0000C171D07D1F7E5EBF2E0AFEBB2E0119292
:100EE00011921D921D9282E0EF3BF807C1F785E059
:100EF0000E940C08DF91CF911F910F910C94A704D1
:100F00007F928F929F92AF92BF92CF92DF92EF9299
:100F1000FF920F931F93CF93DF93CCE6D1E085EB45
:100F2000A82E82E0B82E9FEBE92E92E0F92E712CCC
:100F300001E010E06E018881F894E82FE295EF70EF
:100F4000F0E021A18F70A80102C0440F551F8A95BF
:100F5000E2F7CA01922F982B91A392A18095892341
:100F600082A378940E942C07EDE5F1E020E030E0C8
:100F7000812C912C4191A42FA295AF70B0E0909656
:100F80008C9190E04F7002C0959587954A95E2F755
:100F900080FD08C0C801022E02C0880F991F0A9464
:100FA000E2F702C080E090E0882A992A2F5F3F4F45
:100FB0002F303105F9F62196F60180810E9437071E
:100FC000F501808191818816990621F091828082B5
:100FD00081E001C080E0782AF2E0AF0EB11CEA1493
:100FE000FB0409F0A7CF272D45E06FEB72E085EBFE
:100FF00092E00E940D080E94AF04872DDF91CF91EF
:101000001F910F91FF90EF90DF90CF90BF90AF9026
:101010009F908F907F9008950895FF920F931F9354
:10102000CF93DF93F82E092F162FD72FC42F22230B
:1010300049F081E08093DA010E94621F9093D90108
:101040008093D8018091DA018823D9F08091D8016A
:101050009091D9010E946E1F069798F0EF2DF02F06
:10106000A12FBD2F80E090E04C2F50E08417950712
:1010700034F4219131912D933D930196F7CF109245
:10108000DA01DF91CF911F910F91FF900895EF92B8
:10109000FF920F931F93CF93DF938B01682F111152
:1010A0000AC0442329F0E82FF0E0EE53FA4F649190
:1010B000762F862F75C0212F30E0E82FF0E04423F3
:1010C00021F0EE53FA4FE491F0E046E0049FC001B6
:1010D0001124CFEFD0E0BE010E94E42C4BEA46037E
:1010E000C001479F900D1124800F911D800F911D0D
:1010F000982F990F890FAE01421B530B4E9FD001C1
:101100004F9FB00D5E9FB00D11249B2F189FA00123
:101110001124452F55278E01041B150B0E9FA0018E
:101120000F9F500D1E9F500D11247E01E81AF108EB
:10113000E29E8001E39E100DF29E100D1124212FDE
:101140003327C21BD30BCE9F9001CF9F300DDE9F64
:10115000300D112462307105A9F048F46115710554
:1011600069F061307105C9F48B2F752F0DC06430A3
:10117000710581F058F06630710579F47E2F8B2F60
:10118000932F0DC0832F7B2F9E2F09C08E2F7B2F77
:10119000952F05C08E2F732F02C07E2F852F692FAC
:1011A000DF91CF911F910F91FF90EF90089541E053
:1011B0000E944708089508950E94D7080895CF9384
:1011C000DF93762FE901682F842F0E94DC08798352
:1011D00068838A83DF91CF9108958091C902282F77
:1011E000269530E02115310519F48170826005C023
:1011F0002B32310524F0817084658093C9020895F3
:1012000088E090E00C94D62DCF92DF92EF92FF927F
:101210006B017C010E94ED08B701A60188E090E017
:10122000FF90EF90DF90CF900C94F42DE9ECF2E07A
:1012300083E0808311828FEF8283838314826081B5
:101240007181828193810C9404098091C90280FF8D
:1012500002C08695089580E008959091CD02933064
:1012600018F49F5F9093CD02882351F06091C902DA
:101270007091CA028091CB029091CC020C94040927
:10128000089581E00C942D099091CD02992319F0D5
:1012900091509093CD02882351F06091C9027091D2
:1012A000CA028091CB029091CC020C94040908955B
:1012B00081E00C94440970E00C94C00F6091080127
:1012C0008091C90280FF0AC08091070123E0829FBC
:1012D000C001112482539D4F0C945B098091090138
:1012E00090910A01891780F7E82FF0E09F01220F03
:1012F000331FE20FF31FE253FD4F1182108212825F
:101300008F5FF0CF9091C90290FF16C090910901B4
:1013100020910A01921770F4E92FF0E0DF01AA0F83
:10132000BB1FEA0FFB1FE253FD4F818360834283A3
:101330009F5FF0CF0C945E090895CF93DF9300D0A8
:101340001F92CDB7DEB79091C90290FF0AC09E01EF
:101350002F5F3F4F0E94DF084B8169818A810E9485
:1013600082090F900F900F90DF91CF910895CF9346
:10137000DF93EC01EC81F0E0E354FB4F4491E9ECA6
:10138000F2E0628181810E949D098C818F5F8C8354
:10139000DF91CF910895CF93DF93EC01E9ECF2E078
:1013A000438162818C810E949D098C818F5F8C8337
:1013B000DF91CF9108950F931F93CF93DF9300D0C8
:1013C0001F92CDB7DEB78C018091DB0181110AC07D
:1013D0009E012F5F3F4F4FEF6FEF0E94DF088A8122
:1013E0008093DB01F8018481813051F028F0823054
:1013F00061F44091DB010AC08091DB0140E007C04D
:101400006091DB0140E080E003C040E080E060E00C
:101410000E948209F801848190E0019663E070E007
:101420000E94F82C84830F900F900F90DF91CF9142
:101430001F910F910895AF92BF92CF92DF92EF92DA
:10144000FF920F931F93CF93DF9300D01F92CDB7DE
:10145000DEB7182FF62E042FE22E9091C90290FFCE
:101460006DC0E92FE695AE2FB0E0AF58BE4F8C911E
:10147000809303029E7F923061F49E012F5F3F4F65
:10148000812F0E94DF084B8169818A810E94820935
:1014900043C0823019F40091CC023EC0863019F46A
:1014A0001091CA0239C08930D9F38931A9F5E951BF
:1014B0008E2F8170D82EE695F0E0E354FA4FA59078
:1014C000B490C12CBB2460910B01C61618F52C2DCD
:1014D00030E0A29EC001A39E900DB29E900D1124FB
:1014E00070E00E94E42C812FD11002C0860F01C051
:1014F000861B90910901290F311DA901440F551F29
:10150000240F351F22533D4F402F6F2D0E94DF08BF
:10151000C394D9CF0E945E091093CA02F092CB0205
:101520000093CC02EE2051F06091C9027091CA0282
:101530008091CB029091CC020E9404090F900F90F1
:101540000F90DF91CF911F910F91FF90EF90DF905F
:10155000CF90BF90AF900895E9ECF2E09181282FF1
:10156000438162818CE0890F0C941B0A81E00C940A
:10157000AC0AE9ECF2E09181282F4381628184EF8B
:10158000890F0C941B0A81E00C94B90AE9ECF2E093
:10159000628129E1620F08F46FEF282F4381818176
:1015A0000C941B0A81E00C94C60AE9ECF2E062811B
:1015B00029E1621B08F460E0282F438181810C94AB
:1015C0001B0A81E00C94D50AE9ECF2E043812CE09F
:1015D000420F08F44FEF282F628181810C941B0A7F
:1015E00081E00C94E40AE9ECF2E043812CE0421B38
:1015F00008F440E0282F628181810C941B0A81E06D
:101600000C94F30A20E00C941B0AFF920F931F9393
:10161000CF93DF93EC01F12C0FEF10E060910B0101
:10162000F616F0F4809109012F2D30E0280F311DBE
:10163000C901880F991F280F391F22533D4F70E0B1
:10164000C8010E94F82C962F8C814091CC026091A9
:10165000CB02F99E800D11240E94DF08F394DECFA7
:101660000E945E099A818C8190FF02C08F5F01C049
:1016700081508C83DF91CF911F910F91FF9008953E
:10168000AF92BF92CF92DF92EF92FF920F931F9390
:10169000CF93DF93FC01828180FF02C00FEF01C076
:1016A00001E010E046E0A42E80910B01181708F02D
:1016B00043C080910901C12ED12CE601C80FD11D74
:1016C000CE01880F991FC80FD91FC253DD4F198251
:1016D00018821A8234E0E32EF12CB12C8091DD01C6
:1016E0008B0D87302CF06A2D0E94D62C892F05C0D7
:1016F00087FF03C090910B01890F082E000C990BF6
:10170000C816D90691F48091CC028E9DA0018F9DC0
:10171000500D112455954795559547959E0160911B
:10172000CB028091CA020E94DF08B00EF1E0EF1AEE
:10173000F108A1F61F5FB8CF0E945E098091DD011C
:10174000013031F4811102C080910B01815007C03A
:1017500090E0019660910B0170E00E94F82C80935C
:10176000DD01DF91CF911F910F91FF90EF90DF90FE
:10177000CF90BF90AF900895CF9380910901909141
:101780000A01891770F4E82FF0E09F01220F331F40
:10179000E20FF31FE253FD4F1182108212828F5F1E
:1017A000F0CFC0E060910B01C617C0F5EC2FF0E060
:1017B00070E0CF010E94F82C20910901820F209146
:1017C000DC01022E000C330B90E0E217F307CCF0A3
:1017D00020910601022E000C330B2E173F078CF0D0
:1017E0009C01220F331F820F931F9C0122533D4FF8
:1017F0004091CC026091CB028091CA020E94DF0826
:101800000BC0FC01EE0FFF1F8E0F9F1FFC01E25368
:10181000FD4F118210821282CF5FC4CF0E945E09F9
:10182000209105018091DC01820F8093DC01909171
:101830000601920F9093060119165CF4082E000C15
:10184000990B40910B0150E04150510984179507C5
:101850001CF0219520930501CF9108958F929F92BE
:10186000AF92BF92CF92DF92EF92FF920F931F93AE
:10187000CF93DF938C01FC014481C42FD0E09E0103
:10188000DE010E943C2D9B01AC010E94522D6B0198
:101890007C01E0E2F0E0EC1BFD0BA5E5B0E09B0174
:1018A000AC010E94522D4B015C019F01DF010E949F
:1018B000342D9B01AC010E945D2D9B01AC012C0DD0
:1018C0003D1D4E1D5F1DC501B4010E940C2DC22F90
:1018D000D22F2A3228F4F3E02F9F900111240DC05B
:1018E00025E530E02C1B3109C901880F991F280F0D
:1018F000391F37FF02C02F5F3F4F35952795C22F05
:10190000C095F12C85E5E82EED1A80910B01F816B3
:10191000C8F4F1FC02C08E2D01C08D2F90910901F9
:101920002F2D30E0290F311DA901440F551F240F21
:10193000351F22533D4F4C2F6091CB020E94DF0890
:10194000F394E3CF0E945E09F8018481811102C003
:1019500091E003C0803219F49FEF909304019091BD
:101960000401890FF8018483DF91CF911F910F91BA
:10197000FF90EF90DF90CF90BF90AF909F908F90AF
:1019800008950F931F93CF93DF93EC0100E010E0D5
:1019900080910B01282F30E00217130724F5909156
:1019A00009019801290F311DA901440F551F240F6A
:1019B000351F22533D4F869590E04C81081719073B
:1019C0001CF4442331F002C0411103C04091CC0209
:1019D00001C040E06091CB028091CA020E94DF0802
:1019E0000F5F1F4FD5CF0E945E098C8190E001965A
:1019F000817099278C83DF91CF911F910F9108956A
:101A00008F929F92AF92BF92CF92DF92EF92FF920E
:101A10000F931F93CF93DF93FC01B280948081E0FA
:101A2000848300E015E05BE4A52E88248394EE24F3
:101A3000EA94F12C7BE4C72ED12C80910B0108177E
:101A400008F08FC0C02FD0E01C9FF0011D9FF00D4B
:101A50001124E252FE4F911003C01382128267C01C
:101A60002381222389F1215023833481332319F0E8
:101A70009A2D921B01C0922F8091CC021C9FF001E5
:101A80001D9FF00D1124E252FE4F899FC0011124C9
:101A9000B6010E94E42C6283211104C0332311F0AB
:101AA0001482A38222E02B1508F441C01C9FF00190
:101AB0001D9FF00D1124E252FE4F8091CA028083D7
:101AC0008091CB02818333C00E94B12D823091403E
:101AD00074F582E08B1530F40E94B12DB7010E949D
:101AE000F82C02C08091CA021C9FF0011D9FF00DCE
:101AF0001124E252FE4F808322E02B1558F40E94FD
:101B0000B12D2091CB022695622F70E00E94F82C17
:101B1000820F02C08091CB021C9FF0011D9FF00D2F
:101B20001124E252FE4F81831282A382848280912B
:101B300009019E01280F311DC901880F991F280F27
:101B4000391F22533D4F1C9FF0011D9FF00D1124A2
:101B5000E252FE4F4281618180810E94DF080F5F67
:101B60006CCFDF91CF911F910F91FF90EF90DF909D
:101B7000CF90BF90AF909F908F900C945E09E9EC4E
:101B8000F2E080818E7F8083608171818281938188
:101B90000E940409109204022FEF80E792E0215086
:101BA00080409040E1F700C000000C945E09609115
:101BB000C902669570E04BE050E08CE091E00E9435
:101BC000C12D892B19F481E0809304020E94621FC9
:101BD0009093FD018093FC0108959091C90290FFBC
:101BE00035C09170811102C0926006C08B3210F036
:101BF000946502C0880F982B9093C902662351F018
:101C00006091C9027091CA028091CB029091CC027E
:101C10000E9404096091C902669570E04BE050E0B3
:101C20008CE091E00E94C12D892B19F010920402E2
:101C300002C00E94D70D81E08093FF014091CC0249
:101C40006091CB028091CA020C94020B0895682F18
:101C50009091C902969581E0890F8B3208F081E05E
:101C60000C94ED0D81E00C94270E682F9091C90221
:101C700096958FEF890F09F48AE20C94ED0D81E0BF
:101C80000C94350E61E00C94ED0DE9ECF2E08081EE
:101C90008160808386950C94420E8091C90280FDFC
:101CA0000C94BF0D0C94450E60E00C94ED0D8091EA
:101CB000020281112EC00E94D31D811104C00E9416
:101CC000841E0E9416090E9400096093C902709345
:101CD000CA028093CB029093CC026E7F61F40E9483
:101CE00016090E9400096093C9027093CA0280938A
:101CF000CB029093CC020E94ED08109204028091D6
:101D0000C90280FF03C086950E94540E81E0809333
:101D1000020208950F931F93CF93DF9380910402E3
:101D2000882309F49CC080910302E091C902E695E2
:101D3000E81BE093FE01823049F4F0E0E754FB4FEA
:101D4000E491CE2FD0E007EB19E059C0863049F47A
:101D5000F0E0EA54FB4FE491CE2FD0E00BEC19E019
:101D60004EC0893051F4E695F0E0ED54FB4FE4911C
:101D7000CE2FD0E005E01BE042C08F3051F4E69555
:101D8000F0E0E055FB4FE491CE2FD0E000E41BE003
:101D900036C0853149F4F0E0E355FB4FE491CE2F96
:101DA000D0E00CEB1BE02BC08831D9F0833239F442
:101DB000EBEAF4E0C591D4910BED19E020C0843238
:101DC000A9F08532C1F48E2F63E00E94CA2CE92F5E
:101DD000F0E0E855FB4FE491CE2FD0E000E01DE0AD
:101DE0000EC0C8E2D0E00EE21CE009C0C4EFD1E0B2
:101DF00001EC1CE004C0C0EDD7E00BED18E08091D1
:101E0000FF01882389F01092FF010E94621F9E014A
:101E100020953095820F931F9093FD018093FC01D4
:101E200010920102109200028091FC019091FD013C
:101E30000E946E1F8C179D0790F0E091FC01F091BD
:101E4000FD01CE0FDF1FD093FD01C093FC018CEF8D
:101E500091E0F801DF91CF911F910F910994DF91EB
:101E6000CF911F910F910895882311F0FA0101C0BD
:101E7000FB010994CF93DF93C82FD62F0E94250929
:101E80008C1740F00E9425098D1720F4DF91CF9127
:101E90000C94320E8C2FDF91CF910C94420E0F9345
:101EA0001F93CF93FB01C281CC2309F463C08C0143
:101EB0000E94221D8272F801E35CFC45E431F105C9
:101EC00008F059C0EA5AFF4F0C942E2D0E944D0E77
:101ED00006C04FE35EE062E37EE00E94340FC0E0A4
:101EE0004AC042E35EE06FE37EE0F7CF43EC5AE0A6
:101EF00066EB7AE0F2CF46EB5AE063EC7AE0EDCFA6
:101F000041EE5AE062ED7AE0E8CF42ED5AE061EE50
:101F10007AE0E3CF4FEF5AE060EF7AE0DECF40EFB8
:101F20005AE06FEF7AE0D9CF48E559E061E479E013
:101F3000D4CF41E459E068E579E0CFCF81E017C024
:101F400065E082E010C068E086E00DC06EE089E0E8
:101F50000AC064E18FE007C067E185E104C088E161
:101F600006C062E289E10E943A0FB9CF83E20E9483
:101F7000420EB5CFC1E08C2FCF911F910F910895E4
:101F8000869A21B32F7B31B330644FB7F894FC01AC
:101F9000CB01880F991F680F791F6E0F7F1FE617FF
:101FA000F70789F0819198E031BB000000C087FFFE
:101FB00021BB880F000000C000C000C021BB00C0D2
:101FC0009A9591F7ECCF4FBF8FE594E00197F1F729
:101FD00000C000000895AF92BF92CF92DF92EF92BF
:101FE000FF920F931F93CF93DF937C015B01C42F6C
:101FF000D22FFC0182818823F9F0409307020E94CE
:10200000621F909306028093050280E28C0F883055
:1020100008F06EC0C77081E001C0880FCA95EAF76A
:10202000DF91CF911F910F91FF90EF90DF90CF90B4
:10203000BF90AF900C94C31480910702481335C031
:1020400080910502909106020E946E1F6C01B701FB
:10205000C5010E940C1AC816D90638F510E21D0FEA
:10206000CD17B9F080E28C0F883040F4C77081E062
:1020700001C0880FCA95EAF70E94CA14183058F5B3
:1020800081E09D2F977001C0880F9A95EAF70E9412
:10209000C314802F0E94B014183050F5D77081E01F
:1020A00001C0880FDA95EAF70AC080E28C0F883009
:1020B000F8F4C77081E001C0880FCA95EAF7DF9194
:1020C000CF911F910F91FF90EF90DF90CF90BF9035
:1020D000AF900C94CA14802FDF91CF911F910F9174
:1020E000FF90EF90DF90CF90BF90AF900C94B01422
:1020F000DF91CF911F910F91FF90EF90DF90CF90E4
:10210000BF90AF9008950F939C01CB01243F4CE505
:10211000340731F188F4293DFCE53F07D9F02A3D29
:102120004CE5340779F1283D3C45A9F506E221EE5E
:1021300041EE68ED7CE52BC0263FFCE53F07E1F072
:10214000A8F0273F3C4539F507E225EE46EE67EF5C
:102150007CE51DC007E225EE45EE69ED7CE517C084
:1021600006E221EE40EE64EF7CE511C007E225EEC9
:1021700044EE65EF7CE50BC006E221EE42EE66EF31
:102180007CE505C008E221E045EE6AED7CE50E94B1
:10219000EB0F80E008C0FC018281882319F01092C7
:1021A000070201C081E00F910895CF93DF93EC0106
:1021B000FB018281882309F41FC1C230FCE5DF07DF
:1021C00008F41BC1C6319CE5D90738F09E012B5F8E
:1021D0003C452930310508F010C10E94F01D909354
:1021E000E5028093E402C031ECE5DE0709F4C3C0E8
:1021F00008F041C0C8308CE5D80709F49AC0F0F463
:10220000C430ECE5DE0709F487C068F4C2308CE521
:10221000D80709F477C0C330DC4509F0E3C08091EA
:10222000E402826076C0C630ECE5DE0709F46EC0D9
:1022300008F07BC08091E40288606BC0CC308CE5F4
:10224000D80709F485C068F4CA30ECE5DE0709F464
:1022500074C008F079C00E9453178091E40280682E
:1022600058C0CE308CE5D80709F476C008F07FC09E
:102270008091E4028BC0CC3FECE5DE0709F44FC04F
:1022800018F5C3318CE5D80709F47DC078F4C13165
:10229000ECE5DE0709F473C0C231DC4509F0A2C0E9
:1022A0000E9453178091E4028F7733C0C5318CE5CB
:1022B000D80709F472C008F486C0CB3FDC4509F0AA
:1022C00091C08091E5023EC0C115FDE5DF0709F42C
:1022D0005FC058F4CE3F9CE5D90709F444C008F428
:1022E0003FC08091E50282602DC0C230FDE5DF076E
:1022F00009F475C008F45DC0C330DD4509F072C053
:1023000080E06EC08091E402816003C08091E402AD
:1023100080618093E40266C08091E40211C08091E4
:10232000E50282608093E5025DC08091E4028062F4
:10233000F0CF8091E4028064ECCF8091E402886069
:102340008460E7CF8160EECF8091E4028E7FE1CFA1
:102350008091E4028D7FDDCF8091E402877FD9CF29
:102360008091E50218C08091E5028D7FDBCF8091DE
:10237000E4028F7ECECF8091E4028F7DCACF809120
:10238000E4028F7BC6CF8091E402877F8B7FC1CF31
:102390008091E5028D7F8E7FC5CF8091E40282FB24
:1023A000222720F991E0922790FB82F990FB83F994
:1023B000B0CF8091E502982F909591708E7F892BF8
:1023C00090FB81F9AFCF0E9453178091E40287FB05
:1023D000222720F991E0922790FB87F99ACF81E09C
:1023E0000E94861E8091E4029091E5020E94011EE7
:1023F0000E94531780E001C081E0DF91CF910895E2
:10240000CF93DF9386319C4541F5EB010E94221D5D
:10241000982F8A812091170130911801882379F033
:102420009A7A81E009F480E080930802911102C059
:1024300069E201C065E3C9010E94CD1E0AC0809116
:102440000802811102C069E201C065E3C9010E946E
:10245000CF1E0E94701D80E001C081E0DF91CF910E
:10246000089590930E0280930D020895E0910D025D
:10247000F0910E02309721F00190F081E02D099447
:1024800080E00895E0910D02F0910E02309721F066
:102490000280F381E02D09940895E0910D02F091FE
:1024A0000E02309739F022E0DC012C930480F58194
:1024B000E02D0994089520910B0230910C02281709
:1024C000390771F090930C0280930B02E0910D029A
:1024D000F0910E02309721F00680F781E02D0994EB
:1024E00008952091090230910A022817390771F0E6
:1024F00090930A0280930902E0910D02F0910E027E
:10250000309721F00084F185E02D0994089585B776
:10251000806885BF85B7806885BF089581E008958C
:102520000C948E1208950C9492120C9492120C94A6
:1025300095120C9492120C9499120C9492120E947F
:1025400087120E949D120C949B120E94591F0E9498
:102550004E070E9413200E94570E0C9497127F92F0
:102560008F929F92AF92BF92CF92DF92EF92FF92A3
:102570000F931F93CF93DF93CDB7DEB72A970FB694
:10258000F894DEBF0FBECDBF0E9493120E9492123C
:102590000E9480070E949012811111C08FEF8983E1
:1025A0008A831B820E94621F8160782F9D838C83A7
:1025B00049815A816B818D810E9465134FC040E132
:1025C000A42E42E0B42E00E010E0702E802F0E9476
:1025D00022076C01F501819091905F018826992670
:1025E0008114910431F40F5F1F4F0530110569F715
:1025F000D5CF80919A0281FD0E942B0780E0EE24C6
:10260000E394F12C94012E213F21232B09F18E8399
:102610007F82CE20DF2081E0CD2809F480E088870A
:102620000E94621F8160782F9A8789874E815F811F
:1026300068858A850E946513000F111FF801E05F0D
:10264000FD4F80819181E826F926F182E08206C063
:102650008F5FEE0CFF1C8F30A9F6C5CF0E948A0E4B
:102660000E94E4220E94361290910F028917C9F04D
:102670000E94361280930F022A960FB6F894DEBF9E
:102680000FBECDBFDF91CF911F910F91FF90EF90C3
:10269000DF90CF90BF90AF909F908F907F900C94E1
:1026A0000B052A960FB6F894DEBF0FBECDBFDF91A3
:1026B000CF911F910F91FF90EF90DF90CF90BF903F
:1026C000AF909F908F907F900895CF93DF93CDB779
:1026D000DEB72B970FB6F894DEBF0FBECDBF4F838A
:1026E000588769877A878B87DE01119686E0FD011E
:1026F00011928A95E9F785E0FE01379601900D92D7
:102700008A95E1F749815A816B817C818D819E8117
:102710000E940F1A2B960FB6F894DEBF0FBECDBFE6
:10272000DF91CF910895FC01808191810E94E31C8B
:102730000895CF93882309F4A9C0C82F8238C1F423
:102740000E94361281FDA2C069E380911701909129
:1027500018010E94CD1E0E94701D2FEF81EE94E0A3
:10276000215080409040E1F700C0000069E319C0AB
:10277000833801F50E94361280FD88C063E58091A0
:102780001701909118010E94CD1E0E94701D2FEF1D
:1027900081EE94E0215080409040E1F700C00000BD
:1027A00063E580911701909118010E94CF1ECF918F
:1027B0000C94701D8438C1F40E94361282FD66C0EC
:1027C00067E480911701909118010E94CD1E0E942C
:1027D000701D2FEF81EE94E0215080409040E1F792
:1027E00000C0000067E4DDCF8CEF8C0F813AF8F475
:1027F0008C2F0E948225811149C06C2F8091170176
:10280000909118010E94971E882349F06C2F8091A7
:102810001701909118010E94CF1E0E94701D6C2F0D
:1028200080911701909118010E94CD1EC0CF80E2C7
:102830008C0F883048F4C77081E001C0880FCA95BA
:10284000EAF70E94251DB3CFEBE5EC0FE33040F42F
:10285000F0E0E653FE4F808190E0CF910C945B1244
:10286000E8E5EC0FE73150F4F0E0EE0FFF1FE4561F
:10287000FE4F80819181CF910C947112C03F30F056
:102880008C2F0E94D921CF910C94C622CF9108950C
:10289000882309F464C0823879F40E94361281FFDB
:1028A0005EC069E380911701909118010E94CD1ECE
:1028B0000E94701D69E310C08338B1F40E94361283
:1028C00080FF4DC063E580911701909118010E942F
:1028D000CD1E0E94701D63E5809117019091180133
:1028E0000E94CF1E0C94701D843879F40E94361219
:1028F00082FF35C067E480911701909118010E9412
:10290000CD1E0E94701D67E4E7CF9CEF980F913AAF
:1029100010F4682FE1CF90E2980F983050F4877050
:1029200091E001C0990F8A95EAF7892F0E942B1D2B
:10293000D9CF9BE5980F933020F480E090E00C9481
:102940005B1298E5980F973120F480E090E00C94AA
:102950007112803F20F00E9441220C94C6220895FB
:10296000CF93C82F0E949913C93349F42FEF87EEF4
:1029700093E0215080409040E1F700C000008C2F90
:10298000CF910C944814882321F00E94251D0C94AB
:10299000701D0895882321F00E942B1D0C94701D3A
:1029A0000895CF92DF92EF92FF920F931F93CF93F0
:1029B000DF937C01062FC72FFC01158112951F7034
:1029C000D281D1110E94421D0E941B1D882399F0C3
:1029D000DD2389F08C2F807F803421F080E2800F0E
:1029E000883048F082E00E94BA1D0E941B1D91E0D1
:1029F000D82ED92601C0D12CCC2EC2948FE0C8226B
:102A00008C2D90E0FC01E659FF4F0C942E2D8C2F5D
:102A1000807FCF70882311F0C295C07FDD2399F0AD
:102A2000CC2309F48DC180E2800F883010F00111B1
:102A300004C08C2F0E94251D03C08C2F0E94351DC1
:102A40000E94701D7DC1802F0E944814CC2309F480
:102A50009CC180E2800F883010F0011104C08C2FDF
:102A60000E942B1D03C08C2F0E943B1D0E94701DD5
:102A70008CC18C2F807FCF70803211F0C295C07FC7
:102A8000002319F00130C9F022C0DD2371F01123B9
:102A900041F0113031F40E94551D8C2B0E945D1DB8
:102AA00074C10E94551D8C2B1DC0112319F01130CB
:102AB00009F46BC10E94661D25C0DD2321F016308C
:102AC00008F063C10EC0153008F05FC11BC0DD23E4
:102AD00061F0112331F0F701858180FF31C18F70E2
:102AE00085838C2F0E94C31450C1112359F00933E0
:102AF00009F037C1FFEF27EE83E0F150204080401E
:102B0000E1F72DC18C2F0E94CA143FC18C2F8695EE
:102B10008695837019F0813061F037C1DD2321F093
:102B2000802F9C2F937002C080E090E00E945B1287
:102B300034C1DD2321F0802F9C2F937002C080E0F0
:102B400090E00E94711229C1802FDD2319F00E94AC
:102B5000D92102C00E9441220E94C6221EC18C2F90
:102B6000837009F045C0D11114C1402F429546959C
:102B70004770440F440F602F6F70862F90E0A0E0E5
:102B8000B0E0042E04C0880F991FAA1FBB1F0A942F
:102B9000D2F704FF10C00FE010E020E030E004C0E6
:102BA000000F111F221F331F4A95D2F70095109571
:102BB0002095309503C000E010E09801C695C695B9
:102BC000C370BC01CD01602B712B822B932BC230C3
:102BD00049F058F4C13019F00E94601BDAC00E941D
:102BE0004E1BD7C00E94721BD4C00E944C1BD1C088
:102BF000DD2319F08C2F817001C08695882309F49C
:102C0000C8C0402F429546954770440F440F602F2F
:102C10006F70862F90E0A0E0B0E0042E04C0880F13
:102C2000991FAA1FBB1F0A94D2F704FF10C00FE020
:102C300010E020E030E004C0000F111F221F331FFE
:102C40004A95D2F7009510952095309503C000E085
:102C500010E09801C695C695C370BC01CD01602BEC
:102C6000712B822B932BC23049F058F4C13019F0EC
:102C70000E94251C8EC00E94131C8BC00E94371C12
:102C800088C00E94861B85C0CF70DD2339F08C2F51
:102C90000E94AC1B802F0E94C3147BC0802F0E9417
:102CA000CA148C2F0E94CD1B74C0023F01F128F47E
:102CB000003F41F0013FA1F03FC0033FF9F0043F66
:102CC00039F13AC0DD2341F0153008F05EC08C2F99
:102CD0008F710E94F21B59C0163008F056C0F7CF12
:102CE000DD2339F08C2F8F710E94AC1B4EC0DD2389
:102CF000C9F38C2F8F710E94CD1B47C0DD2329F0B3
:102D00008C2F8F710E94971B40C00E94921B3DC068
:102D1000DD2349F0CF718C2F0E94AC1B63E08C2F18
:102D20000E94A51D32C081E00E94BA1D123068F1D8
:102D300082E00E94BA1D29C0DD2331F0112391F2F7
:102D4000802F0E94991321C0112399F2093349F46D
:102D50009FEFE7EEF3E09150E040F040E1F700C074
:102D60000000802F0E94481410C04C2F4F70602F1D
:102D7000C7010E9414050E94BD1A0FC04C2F4F704E
:102D8000602FC7010E94170508C088EF8C0D8430A2
:102D900020F40E9436120E940B05DD20C9F00E942B
:102DA000171D80FD15C0F70112820E94111D0E949F
:102DB000AC1BC7010E9409170E94111DDF91CF9122
:102DC0001F910F91FF90EF90DF90CF900C94CD1B4F
:102DD000DF91CF911F910F91FF90EF90DF90CF90F7
:102DE00008950F931F93CF93DF93EC01688179814E
:102DF0008A810E94EE1C8C010E94491C0E943A1B91
:102E0000B801CE010E94D114DF91CF911F910F9193
:102E10000895CF93DF93EC01988189812B813C81C8
:102E2000232B31F08F3F31F481E09F3F19F403C031
:102E300081E001C080E080FD19C0CE010E94C10484
:102E400081110CC00E941B1D882381F08A81882378
:102E500069F082E0DF91CF910C94BA1DCE010E94FF
:102E6000F116CE01DF91CF910C949C04DF91CF91AC
:102E700008950E94421D0E94521D0E94701D0E94D2
:102E8000F7230E94C62280E090E00E945B1280E05F
:102E900090E00C94711280911701909118010E949A
:102EA000D11E0C9439170E94321D0C944B17E92F38
:102EB000E295EF704E2F50E0FA013297EE30F105B7
:102EC000B0F4E658FF4F0C942E2D803F91F018F48B
:102ED000883E68F40EC0843F51F40BC0883E48F031
:102EE000813F29F406C093FB882780F9089580E08C
:102EF000089581E008950E94E31C0E9457170895E9
:102F0000CF93DF9300D000D01F92CDB7DEB70F90E4
:102F10000F900F900F900F90DF91CF910895CF9366
:102F2000DF9300D000D000D0CDB7DEB726960FB625
:102F3000F894DEBF0FBECDBFDF91CF9108951F93F0
:102F4000CF93DF93C0911B0216E080911C02C8173B
:102F500099F0D0E01C9FF0011D9FF00D1124E35E5D
:102F6000FD4F4081518162817381848195810E94EE
:102F70008F172196C770E9CFDF91CF911F910895E8
:102F800040914D0250914E0260914F02709150025B
:102F900080915102909152020C948F170F931F93BE
:102FA000CF93DF938091520282958F7009F05DC0BC
:102FB00080914F02882309F458C080911B02109120
:102FC0001C0260914D0270914E02C0915002D0914E
:102FD000510291E06F3F09F090E0292F06E0811740
:102FE00009F443C0209721F07F3F21F030E003C077
:102FF00031E001C0322F90E030FD34C0089FF00175
:10300000099FF00D1124DF01A35EBD4F11963C9185
:103010001197371327C03C91361324C012963C9168
:10302000129731111FC013964D915C9114974C1B50
:103030005D0B483C5105B0F4809152028F70806165
:1030400080935202EE5DFD4F80818F70806180839E
:103050008DE492E00E940917DF91CF911F910F91AB
:103060000C949F1701968770BACFDF91CF911F9173
:103070000F9108959F92AF92BF92CF92DF92EF92FD
:10308000FF920F931F93CF93DF93CDB7DEB7619776
:103090000FB6F894DEBF0FBECDBF8C0185E0F801FE
:1030A000DE011D9601900D928A95E1F7F8014081AD
:1030B0005181E28090914D0260914E022091500228
:1030C000309151022115310531F06F3F31F481E02B
:1030D0009F3F19F403C081E001C080E0F82FF17038
:1030E0009F2E80FD46C1F801A380B4808DE4C82ED8
:1030F00082E0D82EF0904F02F501E21BF30BFF2087
:1031000009F4DFC080915202E83CF10508F09BC051
:10311000282F207F09F052C0561313C0491311C045
:10312000FE2CE1100EC08F708061809352020E94CD
:10313000C017C6010E94091780915202F8018583C9
:1031400058C1AB2831F05F3F31F481E04F3F19F4B3
:1031500003C081E001C080E080FD03C081E08E25D6
:1031600002C080E090E0F82FF170FF2E80FF1CC0BD
:1031700080911B0220911C0236E0821709F417C1CE
:1031800090E0389FF001399FF00D1124E35EFD4F70
:103190006181561306C06081461303C06281E61246
:1031A00003C001968770E9CFFE2CEE2009F421C1FF
:1031B000809152028160809352025AC0561306C019
:1031C000491304C0E11002C0F8019FC04D875E871B
:1031D0008D859E850E947B17882379F1EE2069F109
:1031E00020915202822F82958F7090E0029774F0A6
:1031F00080914D0290914E0298878F831986BB86ED
:10320000AA862C87CE0107960E94091786E0F8014E
:10321000ADE4B2E001900D928A95E1F70E94CE17DD
:103220000E94C0170DC0561729F14D875E878D8506
:103230009E850E947B1781112CC0C8010E9409172E
:10324000FF24F394D6C0282F207F69F77A2DB98AFE
:10325000A88A6E2D89890E9480178DE492E00E94D1
:10326000091786E0F60111928A95E9F70E94C017C6
:10327000F12CBFC04913D9CFE110D7CFF801858316
:10328000C8010E94091786E0F60111928A95E9F7B4
:10329000B0C0EE2091F220915202822F82958F7061
:1032A00090E002970CF4B2CF80914D0290914E02C3
:1032B0009A8389831B82BD82AC822E83CE010196C4
:1032C000A3CFE83CF10508F047C0FE2CEE2009F43E
:1032D000B4CF561330C049132EC02091520220FDA6
:1032E00021C0822F82958F70482F50E041155105E3
:1032F000C9F0F80125834F30510541F08F5F982FB9
:103300009295907F822F8F70892B8583C8010E94B0
:10331000091786E0F801ADE4B2E001900D928A95BC
:10332000E1F742C086E0F801ADE4B2E001900D9211
:103330008A95E1F75EC04D875E878D859E850E94E8
:103340007B17811163CF809152028160809352027A
:10335000C8010E9409174DC07A2DB98AA88A6E2D1E
:1033600089890E94801786E0F60111928A95E9F713
:103370001BC0EE2009F461CF4D875E878D859E8549
:103380000E947B17F82E882309F457CF86E0F801B6
:10339000ADE4B2E001900D928A95E1F78DE492E000
:1033A0000E9493130E94CE170E94C01722C04D871F
:1033B0005E878D859E850E94E31C292F22952F70A4
:1033C000223028F49F7039F0811105C00BC02430E1
:1033D00028F49F7049F4805E883020F0C8010E9474
:1033E00009179F2CF92C05C0F8019581907F99F75A
:1033F000F9CF8F2D61960FB6F894DEBF0FBECDBF0B
:10340000DF91CF911F910F91FF90EF90DF90CF90C0
:10341000BF90AF909F90089588EC90E008951F931F
:10342000CF93DF93CDB7DEB72C970FB6F894DEBFFE
:103430000FBECDBF4F83588769877A878B879C875C
:10344000CE0107960E943A188823D1F09F81888583
:103450002A853B85232B31F08F3F31F481E09F3F5C
:1034600019F403C081E001C080E080FD47C04F81B6
:10347000588569857A858B859C850E948F173EC00B
:1034800086E0FE013796DE01119601900D928A9535
:10349000E1F7FF81E8856A857B856115710531F06B
:1034A000EF3F31F481E0FF3F19F403C081E001C038
:1034B00080E080FD23C020911C0230E0C90101960C
:1034C0008770992740911B0250E084179507F1F10E
:1034D000F983EA837D836C8396E0929FD001939F6A
:1034E000B00D1124A35EBD4FFE01319601900D92E7
:1034F0009A95E1F780931C020E949F1716E0809135
:103500001B0290911C02891771F1189FC0011124B0
:10351000835E9D4F0E943A18882329F1E0911B0297
:103520001E9FF0011124E35EFD4F408151816281B5
:103530007381848195810E948F1780911B0290E096
:1035400001968770992780931B02D9CF0E94531749
:1035500010921C0210921B02EDE4F2E086E0DF0103
:103560001D928A95E9F72C960FB6F894DEBF0FBE30
:10357000CDBFDF91CF911F910895EF92FF920F93EE
:103580001F93CF93DF938C01892B09F46CC0F12C2E
:10359000EE24E394E8012196F8018491843740F405
:1035A000843008F051C0813081F0823019F15BC065
:1035B000853709F444C0A8F19CE7980F903708F0CC
:1035C00052C08F770E94481441C00E5F1F4FFE010A
:1035D000849190E2980F983050F48770FE2D01C0CE
:1035E000FF0F8A95EAF78F2F0E94451D14C00E9495
:1035F00099132DC00E5F1F4FFE01849190E2980F2A
:10360000983060F48770FE2D01C0FF0F8A95EAF7AD
:103610008F2F0E944B1D0E94701D19C00E944814DC
:1036200016C00E5F1F4FFE01C491CC2381F08FE9BD
:103630009FE00197F1F700C00000C150F6CF0E5F88
:103640001F4FFE01F49003C00E9499138E018F2D2D
:10365000882309F49FCFEFE9FFE03197F1F700C02D
:1036600000008150F5CFDF91CF911F910F91FF9016
:10367000EF900895089508950C943B1B0C943C1B07
:103680000E943E1B6093890270938A0280938B0292
:1036900090938C020C9439170C94401B0F931F933A
:1036A0000091890210918A0220918B0230918C0244
:1036B000602B712B822B932B1F910F910C94401B2D
:1036C0000F931F930091890210918A0220918B021F
:1036D00030918C0260237123822393231F910F91D9
:1036E0000C94401B0F931F930091890210918A0242
:1036F00020918B0230918C026027712782279327BB
:103700001F910F910C94401B0C943B1B0E94841B37
:10371000609385027093860280938702909388025B
:103720000C94391760E070E0CB010C94861B0F936A
:103730001F9341E050E060E070E08A019B0104C00B
:10374000000F111F221F331F8A95D2F7C901B8013C
:103750001F910F910C94861B0F931F9341E050E033
:1037600060E070E004C0440F551F661F771F8A9504
:10377000D2F78091850290918602A0918702B09144
:1037800088028A019B01082B192B2A2B3B2BC9018C
:10379000B8011F910F910C94861B0F931F9341E06A
:1037A00050E060E070E004C0440F551F661F771FB3
:1037B0008A95D2F7409550956095709580918502D5
:1037C00090918602A0918702B09188028A019B01A4
:1037D000082319232A233B23C901B8011F910F9104
:1037E0000C94861B0F931F9341E050E060E070E063
:1037F00004C0440F551F661F771F8A95D2F780912A
:10380000850290918602A0918702B09188028A0178
:103810009B01082719272A273B27C901B8011F91B7
:103820000F910C94861B0F931F93009185021091AA
:1038300086022091870230918802602B712B822BA7
:10384000932B1F910F910C94861B0F931F93009144
:1038500085021091860220918702309188026023B0
:103860007123822393231F910F910C94861B0F9336
:103870001F9300918502109186022091870230915A
:10388000880260277127822793271F910F910C943C
:10389000861B08952FE0929F800D1124E82FE69556
:1038A000E695E695877051E001C0550F8A95EAF7D5
:1038B00085E0E89FF0011124ED5AFD4F20E030E053
:1038C00070E04081CB01022E02C0969587950A9444
:1038D000E2F78170819584278523842781932F5F68
:1038E0003F4F2530310569F708952FE0929F800DF5
:1038F0001124682F669566956695982F977085E0D8
:10390000689FB001112440E050E080E0FB01E40F2B
:10391000F51FED5AFD4F208130E0092E02C036958B
:1039200027950A94E2F721703327042E01C0220F55
:103930000A94EAF7822B4F5F5F4F4530510531F70C
:103940000895BF92CF92DF92EF92FF920F931F9351
:10395000CF93DF938C01C0908502D0908602E090D7
:103960008702F09088028091890290918A02A0914A
:103970008B02B0918C02C82AD92AEA2AFB2ACFE10D
:10398000D0E0D701C6010C2E04C0B695A795979537
:1039900087950A94D2F780FD04C0219790F7B12C47
:1039A00007C0BC2EB8018C2F0E9433050197A9F3E4
:1039B0008B2DDF91CF911F910F91FF90EF90DF90B2
:1039C000CF90BF900895CF93DF93EC010E94A11C8C
:1039D000BE010E943305DF91CF9108951F93CF93CD
:1039E000DF93EB0190911A02992321F0CB010E9401
:1039F000E31C13C0882349F0CB010E94A11C182F9F
:103A0000682FCE010E944A1C04C0CB010E94751C85
:103A1000182FBE01812F0E943305DF91CF911F9196
:103A2000089580918D02859585958595089580915D
:103A30008D028770089590918D02977081E009F44E
:103A400080E0089580919902089590919902892BC0
:103A5000809399020895809590919902892380938B
:103A60009902089510929902089590919802892BD5
:103A7000809398020895809590919802892380936D
:103A80009802089510929802089590919702892BB8
:103A9000809397020895809590919702892380934F
:103AA0009702089510929702089580918E020895CA
:103AB00008950C94581D0C94591D90918E029817DE
:103AC00021F080938E020C945B1D089580918E02EC
:103AD000882329F010928E0280E00C945B1D0895DB
:103AE000E0911701F0911801809199028083E09193
:103AF0001701F0911801908180919802892B8083A1
:103B0000E0911701F0911801908180919702892B23
:103B1000808380918E02882381F0E0911701F091DB
:103B200018019081892B8083809117019091180151
:103B30000E948B1E81110E94661D80911701909139
:103B400018010C9442120C94581D98E0899F900122
:103B50001124262B20938D020E94AC1B80918D0294
:103B60008595859585950C94A31D10928D0280E016
:103B70000C94A31D20918D028095822380938D0249
:103B8000982F977079F430E0482F082E000C550BD1
:103B90002417350739F08595859585950E94CD1BAD
:103BA0000C94B51D089580E090E00E94DC2D21E08A
:103BB0008C3E9E4F09F020E0822F089582E090E035
:103BC0000C94CE2D682F82E090E00C94E22D83E0DF
:103BD00090E00C94CE2D682F83E090E00C94E22DC1
:103BE000CF9384E090E00E94CE2DC82F81E290E038
:103BF0000E94CE2D2C2F30E0A901582BCA01CF9165
:103C00000895CF93C92F682F84E090E00E94E22DA1
:103C10006C2F81E290E0CF910C94E22DAB01BC01BE
:103C20008FE090E00C94F42DAB01BC0183E190E0B7
:103C30000C94F42D60E070E0CB010C94141E60E055
:103C400070E0CB010E940E1E0C941A1E6CEE7EEFEB
:103C500080E090E00E94002E60E082E090E00E9410
:103C6000E22D60E083E090E00E94E22D1092890254
:103C700010928A0210928B0210928C0260E084E013
:103C800090E00E94E22D60E081E290E00E94E22D4F
:103C900060E085E090E00E94E22D60E086E090E048
:103CA0000E94E22D6FEF87E090E00E94E22D40E05D
:103CB00050E0BA0188E090E00E94F42D60E08DE0D1
:103CC00090E00E94E22D40E050E0BA0188E190E0EF
:103CD0000E94F42D60E087E190E00E94E22D40E038
:103CE00050E0BA018CE190E00E94F42D60E080E2A7
:103CF00090E00E94E22D40E050E0BA0188E190E0BF
:103D00000E94F42D0C941F1E0C94261E682F8EE02A
:103D100090E00C94E22DFC01329697E080E0915007
:103D200029F021912223D9F38F5FF9CF08956623DB
:103D300049F0FC01329608962191621729F0E817A4
:103D4000F907D1F780E0089581E008959C01FC0116
:103D500032969FEF80E04191461789F09F3F19F41A
:103D6000411101C0982F8F5F8630A9F79F3F39F02E
:103D7000F901E90FF11D97FDFA9562830895089501
:103D80009C012A5F3F4FFC014281461301C0128211
:103D9000019682179307B9F708950C94A61E0C9408
:103DA000C01E029626E0FC0111922A95E9F70895BB
:103DB00008950C94D81E0C94D81ECF930E94DB1E3D
:103DC0000E9480070E94D91EC0E08C2F0E9422070B
:103DD000892B29F4CF5FC530C1F780E001C081E0B5
:103DE000CF9108950C94D81E0C94F21E0E94F41EDC
:103DF0008091EA02843049F110929B0220E488E12C
:103E000090E00FB6F894A895809360000FBE2093C1
:103E1000600080E00E940B050E94F41E83B7817F42
:103E2000846083BF83B7816083BF7894889583B7AC
:103E30008E7F83BF0FB6F894A8958091600088614B
:103E400080936000109260000FBE08950C94D81EFD
:103E50000E9453170E9436120E940B050C94261FD5
:103E60001F920F920FB60F9211248F939F93AF93CF
:103E7000BF9380919B02811113C08091E0029091C9
:103E8000E102A091E202B091E3024196A11DB11DB1
:103E90008093E0029093E102A093E202B093E302E8
:103EA000BF91AF919F918F910F900FBE0F901F9078
:103EB000189582E084BD93E095BD9AEF97BD8093FD
:103EC0006E0008952FB7F8948091E0029091E1027E
:103ED000A091E202B091E3022FBF08959C014FB779
:103EE000F8948091E0029091E102A091E202B091F9
:103EF000E3024FBF821B930B089578941F920F9299
:103F00000FB60F9211248F939F93AF93BF9380911D
:103F1000E0029091E102A091E202B091E3020196E9
:103F2000A11DB11D8093E0029093E102A093E202F3
:103F3000B093E302BF91AF919F918F910F900FBE0D
:103F40000F901F90189581E08093E00080E28093AD
:103F5000D8001092C9008FE19EE40197F1F700C0EC
:103F6000000087E090EBDC018093F3029093F40271
:103F7000A093F502B093F6029CE088E10FB6F894A6
:103F8000A895809360000FBE90936000FFCFAF9222
:103F9000BF92CF92DF92EF92FF920F931F93CF9336
:103FA000C0E0CC24C394D12CE82EF12C8C2F0E949D
:103FB00022075C0100E010E0C601002E02C0880F5D
:103FC000991F0A94E2F78A219B21892B31F40F5F14
:103FD0001F4F0F30110581F70AC0602F7C2F80E042
:103FE0000E941805E816F90691F781E004C0CF5F3A
:103FF000C530E1F680E0CF911F910F91FF90EF90D7
:10400000DF90CF90BF90AF900895CF93C82F8CE2F0
:104010000E94C71F882321F08C2FCF910C94C71FBB
:1040200080E0CF910895CF930E94D31D811102C0EB
:104030000E94841EC5E6C15049F00E9480078FE3AC
:104040009CE90197F1F700C00000F5CF89E20E94DA
:10405000052081112AC18AE20E94052081110E9457
:10406000841E85E00E94052081110E94A31F0E94EA
:10407000DE1D80939A0287E00E9405208823A9F123
:104080008BE10E940520882351F080919A0281FBE8
:10409000222720F991E0922790FB81F90EC08EE053
:1040A0000E940520882361F080919A0282FB2227DA
:1040B00020F991E0922790FB82F980939A0215C033
:1040C00080E10E94052090919A02882341F093FBA1
:1040D000222720F981E0822780FB93F904C0892FF1
:1040E000809580FB90F990939A0280919A020E94A9
:1040F000E21D0E94F01D9093E5028093E40280EEA1
:104100000E940520882341F08091E402982F909529
:1041100090FB80F98093E40289E30E9405208823C4
:1041200059F08091E40281FB222720F991E0922747
:1041300090FB81F98093E40282EE0E94052088239F
:1041400059F08091E40282FB222720F991E0922726
:1041500090FB82F98093E40286EE0E94052088237A
:1041600059F08091E40283FB222720F991E0922705
:1041700090FB83F98093E40283EE0E94052088235C
:1041800059F08091E40284FB222720F991E09227E4
:1041900090FB84F98093E40285E30E940520882344
:1041A00059F08091E40285FB222720F991E09227C3
:1041B00090FB85F98093E40281E30E940520882327
:1041C00059F08091E40286FB222720F991E09227A2
:1041D00090FB86F98093E40281E10E940520882308
:1041E00059F08091E40287FB222720F991E0922781
:1041F00090FB87F98093E4028091E4029091E502BC
:104200000E94011E87E20E940520C82F8EE10E94B5
:1042100005208111C2608FE10E9405208111C460D8
:1042200080E20E9405208111C86081E20E94052081
:104230008111C06182E20E9405208111C06283E287
:104240000E9405208111C06484E20E940520882319
:1042500011F0C06802C0CC2329F08C2F0E94EB1D06
:104260006C2F03C00E94E71D682F70E080E090E093
:104270000E944C1B6091850270918602809187029A
:10428000909188020E94841B8FE00E940520882361
:1042900019F081E00E94861E85E10E940520882396
:1042A00021F080E0CF910C94861ECF9108958091EB
:1042B000A20280FF0BC060911E0185E0689FB001E3
:1042C000112475956795759567952BC081FF09C079
:1042D00060911E0185E0689FB00111247595679576
:1042E00020C082FF07C060911E0185E0689FB00179
:1042F000112417C09091A1029923D1F060911D0162
:10430000961788F720911E0185E0289F90011124BF
:10431000929FA001939F500D112470E0CA010E944A
:10432000F82C6038710540F46115710519F406C068
:1043300065E070E0862F08958FE7089581E0089585
:104340008091A20280FF08C060911A0170E075950B
:1043500067957595679521C081FF06C060911A0128
:1043600070E07595679519C082FF04C060911A01CD
:1043700070E010C09091A002992399F0609119010A
:104380009617A0F780911A01899FC001112470E04F
:104390000E94F82C6038710540F46115710519F41C
:1043A00006C061E070E0862F08958FE7089581E0F0
:1043B0000895803F21F40E945721819504C0813FD8
:1043C00029F40E9457218093A6020895823F21F488
:1043D0000E945721819504C0833F29F40E945721F0
:1043E0008093A5020895893F19F40E94A02105C079
:1043F0008A3F31F40E94A02181958093A7020895FD
:104400008B3F21F40E94A021819504C08C3F29F4A8
:104410000E94A0218093A8020895843F21F48091F6
:10442000A402816017C0853F21F48091A4028260BC
:1044300011C0863F21F48091A40284600BC0873FA5
:1044400021F48091A402886005C0883F31F48091F6
:10445000A40280618093A40208958D3F21F480918D
:10446000A20281600BC08E3F21F48091A202826083
:1044700005C08F3F29F48091A20284608093A2023C
:104480000895803F39F48091A60287FF6AC0109298
:10449000A60267C0813F29F48091A6021816BCF3DA
:1044A00060C09091A502823F29F497FF5AC01092F4
:1044B000A50257C0833F19F41916CCF352C090914E
:1044C000A702893F31F419160CF04BC01092A702D5
:1044D00048C08A3F19F497FF44C0F8CF8B3F39F4A6
:1044E0008091A80287FF3DC01092A8023AC08C3F7D
:1044F00029F48091A8021816BCF333C0843F21F43C
:104500008091A4028E7F17C0853F21F48091A40280
:104510008D7F11C0863F21F48091A4028B7F0BC058
:10452000873F21F48091A402877F05C0883F31F442
:104530008091A4028F7E8093A40213C08D3F21F44A
:104540008091A2028E7F0BC08E3F21F48091A20247
:104550008D7F05C08F3F29F48091A2028B7F8093CD
:10456000A2028091A502811106C08091A60281114C
:1045700002C01092A1028091A702811106C0809111
:10458000A802811102C01092A00208950E94621F29
:104590002091A502211104C02091A602222321F01E
:1045A00090939F0280939E022091A702211104C044
:1045B0002091A802222321F090939D0280939C02D7
:1045C00083EA92E00C944D12EF92FF920F931F93A7
:1045D000CF93DF9300D000D000D0CDB7DEB786E018
:1045E000E3EAF2E0DE01119601900D928A95E1F77F
:1045F000E090A502F090A6020091A7021091A802F7
:104600001092A5021092A6021092A7021092A80280
:10461000E11003C0FF2009F45DC080919E029091DB
:104620009F020E946E1FAC019091A102992339F064
:1046300020911F0130E02417350758F04BC020911E
:1046400020018AE0289F900111242417350718F0D3
:1046500041C09F3F19F09F5F9093A102EE2061F04F
:104660000E9457211E1414F09FEF01C091E0989F03
:10467000902D11249093A502FF2061F00E945721F4
:104680001F1414F09FEF01C091E0989F902D11240A
:104690009093A6023091A5023323E1F02091A60267
:1046A0002223C1F045EB3403C0011124992319F0F2
:1046B0009093A50203C081E08093A50235EB23030C
:1046C000C0011124992319F09093A60203C081E040
:1046D0008093A602011103C0112309F45DC08091EB
:1046E0009C0290919D020E946E1FAC019091A002CD
:1046F000992339F020911B0130E02417350758F039
:104700004BC020911C018AE0289F9001112424179E
:10471000350718F041C09F3F19F09F5F9093A002AA
:10472000002361F00E94A021101614F09FEF01C039
:1047300091E0989F902D11249093A702112361F08E
:104740000E94A021111614F09FEF01C091E0989FE4
:10475000902D11249093A8023091A7023323E1F009
:104760002091A8022223C1F045EB3403C00111249B
:10477000992319F09093A70203C081E08093A702C8
:1047800035EB2303C0011124992319F09093A8025B
:1047900003C081E08093A8028091A50281110BC023
:1047A0008091A602811107C08091A702811103C0E8
:1047B0008091A80281110E94C622EB82FC820D83A7
:1047C0001E8386E0FE013196A3EAB2E001900D92CD
:1047D0008A95E1F726960FB6F894DEBF0FBECDBFDF
:1047E000DF91CF911F910F91FF90EF900895E3EA31
:1047F000F2E086E0DF011D928A95E9F71092A102AE
:104800001092A0021092A2020895833081F128F440
:10481000813059F08230D1F00895853009F449C0D3
:10482000B8F1863009F456C0089580912001262FF2
:1048300030E0280F311D2F3F310524F4680F6093BD
:10484000200108958FEF80932001089580911F012A
:10485000262F30E0280F311D2F3F310524F4680F3B
:1048600060931F0108958FEF80931F010895809139
:104870001E01262F30E0280F311D2F3F310524F473
:10488000680F60931E0108958FEF80931E010895B5
:1048900080911D01262F30E0280F311D2F3F31055B
:1048A00024F4680F60931D0108958FEF80931D011C
:1048B000089580911A01262F30E0280F311D2F3FD7
:1048C000310524F4680F60931A0108958FEF8093E7
:1048D0001A01089580911901262F30E0280F311D0B
:1048E0002F3F310524F4680F6093190108958FEF6D
:1048F000809319010895833011F128F4813049F033
:10490000823091F00895853081F120F18630C1F137
:10491000089580912001681720F4861B8093200160
:10492000089510922001089580911F01681720F4C6
:10493000861B80931F01089510921F010895809196
:104940001E01681720F4861B80931E0108951092A3
:104950001E01089580911D01681720F4861B809325
:104960001D01089510921D01089580911A01681784
:1049700020F4861B80931A01089510921A0108955D
:1049800080911901681720F4861B809319010895FE
:104990001092190108950F931F9341E050E060E0D9
:1049A00070E08A019B0104C0000F111F221F331FFA
:1049B0008A95D2F7C901B8010E944C1B1F910F9133
:1049C0000C9453178B3109F468C058F58B3009F4F7
:1049D00086C078F4863009F445C020F4853009F4A7
:1049E0004BC07FC0873009F44AC0883009F477C0D3
:1049F00078C0803109F464C068F48E3009F071C069
:104A000080919A0282FB222720F991E0922790FB65
:104A100082F94CC0863109F462C0893109F45FC063
:104A200060C08A32E1F060F4873209F455C028F49E
:104A30008E3108F456C08D5150C08932E9F051C012
:104A4000833450F48A3308F045C0853309F444C0F8
:104A5000883309F444C045C08334F1F142C00E9458
:104A6000841E3DC080919A02817F8E7F80939A023E
:104A700081E08093AA0208950E94B20430C0809120
:104A80009A02982F9095917090FB80F980939A02EA
:104A9000911125C0897F877F10C080919A0281FB88
:104AA000222720F991E0922790FB81F980939A02C6
:104AB0009923A9F080919A02816080939A020FC095
:104AC00080919A0283FB222720F991E0922790FBA4
:104AD00083F9ECCF895301C080E00E94CB2481E0B0
:104AE000089580E0089580E008950C9473258E5118
:104AF0008A3030F4E82FF0E0E353FE4F80810895D0
:104B000080E00895CF93C82F8091AA02813051F0A0
:104B100018F0823099F17DC00E94221D823209F086
:104B20007AC004C00E94221D823261F48C2F0E9440
:104B30007525811104C08C2F0E94E2241DC081E0E4
:104B400090E01AC08C2F0E947325811114C0C431CB
:104B500079F048F4CB3079F0C03109F060C082E0E0
:104B60008093AA0208C0C93219F0C83321F057C097
:104B70001092AA0254C081E0817053C0C93289F1F9
:104B800018F5C43171F1B0F4C73009F046C08EE1B8
:104B90008093200182E380931F018AE080931E01AD
:104BA00084E180931D0188E080931A0188E280935C
:104BB000190133C082EE8C0F863078F58C2F0E945D
:104BC00077258093A90229C0CE34E9F020F4CB34B4
:104BD00021F56AE013C0C13579F0C235F1F461E026
:104BE0000DC08091A902882319F01092A90215C066
:104BF00081E08093AA0215C061E006C08091A902FD
:104C00000E9405240AC06AE08091A9020E947B24C8
:104C100004C01092AA0280E004C081E002C080E0DB
:104C2000ABCFCF9108958091B3020895CF93DF93D6
:104C300000D01F92CDB7DEB79091EA02943019F5FB
:104C400089837B836A8382E08093E9008FEF909170
:104C5000E800815095FD06C095ED9A95F1F70000AA
:104C60008111F5CF8091E80085FF0DC040E050E054
:104C700063E070E0CE0101960E942C288091E8004C
:104C80008E778093E8000F900F900F90DF91CF9177
:104C90000895BC0184E00C941626BC0183E00C94BA
:104CA000162622E02093E9002FEF3091E8002150F2
:104CB00035FD06C035ED3A95F1F700002111F5CF2D
:104CC0002091E80025FF0BC040E050E066E070E076
:104CD0000E942C288091E8008E778093E800089548
:104CE000CF93DF9321E02093E9002FEF3091E8008C
:104CF000215035FD06C035ED3A95F1F70000211140
:104D0000F5CF2091E80025FF14C0EC0140E050E011
:104D100068E070E00E942C288091E8008E778093F4
:104D2000E80088E0FE01ABEAB2E001900D928A95BE
:104D3000E1F7DF91CF9108958091E902811109C0D7
:104D40000E94BD290E941A2A8091E200846080930B
:104D5000E20008951092E9020895089508950C94D0
:104D6000281F42E061EC81E00E94362942E261ECBA
:104D700082E00C9436298091EC02833009F460C003
:104D800030F4813071F0823009F499C008958A308E
:104D900009F485C08B3009F46BC0893009F0A7C0D5
:104DA00020C08091EB02813A09F0A1C08091E80017
:104DB000877F8093E8008091EF029091F002892B29
:104DC00021F468E08BEA92E003C060E080E090E0CC
:104DD00070E00E9477288091E8008B778093E8004C
:104DE00008958091EB02813209F081C08091EF0239
:104DF0009091F002029708F07AC08091E800877FD6
:104E00008093E8008091E80082FD05C08091EA026D
:104E10008111F8CF6CC02091F3008091F20090E0F6
:104E2000922B029729F48091F1008B7F813021F43D
:104E30008091F1008093B3028091E8008B7753C09A
:104E40008091EB02813A09F052C08091EF0290917B
:104E5000F002892B09F04BC08091E800877F809396
:104E6000E8008091E80080FFFCCF80912B0136C0E4
:104E70008091EB028132D9F58091EF029091F0029E
:104E8000892BA9F58091E800877F8093E8000E9434
:104E90006B298091ED0280932B010C945317809124
:104EA000EB02813221F58091E800877F8093E80052
:104EB0000E946B298091EE028093B4020895809144
:104EC000EB02813AA1F48091E800877F8093E800AB
:104ED0008091E80080FFFCCF8091B4028093F100C4
:104EE0008091E8008E778093E8000C946B290895F8
:104EF00084B7877F84BF0FB6F894A895809160002F
:104F0000886180936000109260000FBE90E080E89E
:104F10000FB6F89480936100909361000FBE0E94D9
:104F20009F120E94BD290E941A2A8091E20084608B
:104F30008093E20078940E94AF2C0E94A51281E237
:104F400091E00E9431128091EA02853069F40E945A
:104F5000F61E8091E8028823B1F30E94DD1E8823AB
:104F600091F30E941628EFCF0E94AF120E94931275
:104F70000E949212E8CF0C94BD27292F33272330AB
:104F80003105C9F060F42130310581F0223031055E
:104F900009F044C08BE390E020EE36E043C02132BC
:104FA0003105E1F02232310549F138C082E190E06B
:104FB0002BE137E037C099278130910549F028F07F
:104FC000029761F5E2ECF6E005C0ECEDF6E002C018
:104FD000EEECF6E0849190E09F0124C0611571052C
:104FE00041F061307105D1F489E090E02BE037E0C9
:104FF00019C089E090E022EF36E014C06115710518
:1050000041F06130710551F481E890E02DE237E024
:1050100009C080E490E02EEA37E004C080E090E030
:1050200020E030E0FA0131832083089580E189BDDA
:1050300082E189BD09B400FEFDCF8091D8008F7D4B
:105040008093D8008091E00082608093E00080919E
:10505000E00081FDFCCF0895CF92DF92EF92FF92A6
:105060000F931F93CF93DF93EC018B017A010E9482
:105070008A29811133C0E114F10439F0F7018081EC
:105080009181081B190BC80FD91FC12CD12C0115F8
:10509000110519F18091E80085FD16C08091E800A6
:1050A0008E778093E800E114F10449F0F7018081E4
:1050B0009181C80ED91ED182C08285E00FC00E94A6
:1050C0008A29882321F30AC089918093F100015035
:1050D0001109FFEFCF1ADF0ADACF80E0DF91CF911D
:1050E0001F910F91FF90EF90DF90CF900895209146
:1050F000F1023091F2022617370748F06115710569
:1051000039F42091E8002E772093E80001C0B9011E
:10511000FC0120E06115710579F18091EA02882394
:10512000F1F18530F1F18091E80083FD3CC0809180
:10513000E80082FD2EC08091E80080FFEBCF209137
:10514000F3008091F20090E0922B6115710551F00F
:105150008830910538F421912093F1006150710954
:105160000196F3CF21E0089709F020E08091E80054
:105170008E778093E800CECF2111CFCF0AC08091E7
:10518000EA02882361F0853061F08091E80083FDB8
:105190000AC08091E80082FFF2CF80E0089582E0AB
:1051A000089583E0089581E008952091F1023091FF
:1051B000F2022617370748F06115710539F420917E
:1051C000E8002E772093E80001C0B901FC0120E03F
:1051D0006115710591F18091EA02882309F440C0BC
:1051E000853009F43FC08091E80083FD3DC0809187
:1051F000E80082FD2FC08091E80080FFE9CF209178
:10520000F3008091F20090E0922B6115710559F046
:105210008830910540F424912093F100319661503B
:1052200071090196F2CF21E0089709F020E0809102
:10523000E8008E778093E800CBCF2111CCCF0AC055
:105240008091EA02882361F0853061F08091E80066
:1052500083FD0AC08091E80082FFF2CF80E00895CC
:1052600082E0089583E0089581E00895982F9730B3
:1052700068F59093E900981739F07091EC0020914F
:10528000ED005091F00003C0242F762F50E021FD57
:1052900002C09F5FECCF3091EB003E7F3093EB007C
:1052A0003091ED003D7F3093ED003091EB003160A7
:1052B0003093EB007093EC002093ED005093F000DE
:1052C0002091EE0027FDE5CF80E008958F70809358
:1052D000E90081E008958091EB0287FF11C0809181
:1052E000E80082FD05C08091EA028111F8CF11C06B
:1052F0008091E8008B770BC08091EA02882349F007
:105300008091E80080FFF8CF8091E8008E7780934D
:10531000E80008952091E4003091E50095E6409181
:10532000EC00842F817040FF23C08091E80080FD55
:105330001DC08091EA02882399F0853099F0809110
:10534000EB0085FD11C04091E4005091E500241769
:10535000350729F3915011F09A01E1CF84E00895C7
:1053600082E0089583E0089581E0089580E0089543
:105370004091E80042FFDDCF08950E942B2A0E9451
:10538000332AE0EEF0E0808181608083E8EDF0E098
:1053900080818F77808319BCA7EDB0E08C918E7FE0
:1053A0008C9380818F7E80831092E90208950F9301
:1053B0001F93CF93DF930E942B2A0E94332AC8EDBC
:1053C000D0E088818F77888388818068888388810E
:1053D0008F7D888319BC1092EA021092E602109227
:1053E000E8021092E70200EE10E0F80180818B7F66
:1053F000808388818160888342E060E080E00E9451
:105400003629E1EEF0E080818E7F8083E2EEF0E0ED
:10541000808181608083808188608083F8018081C1
:105420008E7F8083888180618883DF91CF911F91F7
:105430000F910895E8EDF0E080818F7E8083E7EDA5
:10544000F0E080818160808384E082BF81E080938E
:10545000E9020C94D729E8EDF0E080818E7F80830B
:105460001092E20008951092DA001092E10008957F
:105470001F920F920FB60F9211242F933F934F93C9
:105480005F936F937F938F939F93AF93BF93EF93AC
:10549000FF938091E10082FF0BC08091E20082FFC8
:1054A00007C08091E1008B7F8093E1000E94AE2CC9
:1054B0008091DA0080FF1FC08091D80080FF1BC060
:1054C0008091DA008E7F8093DA008091D90080FF8E
:1054D0000DC080E189BD82E189BD09B400FEFDCF28
:1054E00081E08093EA020E949C2605C019BC1092BC
:1054F000EA020E94AA268091E10080FF19C08091F3
:10550000E20080FF15C08091E2008E7F8093E20070
:105510008091E20080618093E2008091D8008062F7
:105520008093D80019BC85E08093EA020E94AE26E1
:105530008091E10084FF30C08091E20084FF2CC0A4
:1055400080E189BD82E189BD09B400FEFDCF809173
:10555000D8008F7D8093D8008091E1008F7E80936A
:10556000E1008091E2008F7E8093E2008091E20072
:1055700081608093E2008091E602882311F084E04C
:1055800007C08091E30087FD02C081E001C083E095
:105590008093EA020E94AF268091E10083FF29C038
:1055A0008091E20083FF25C08091E100877F809396
:1055B000E10082E08093EA021092E6028091E1002D
:1055C0008E7F8093E1008091E2008E7F8093E200E5
:1055D0008091E20080618093E20042E060E080E040
:1055E0000E9436298091F00088608093F0000E942C
:1055F000AD26FF91EF91BF91AF919F918F917F91D8
:105600006F915F914F913F912F910F900FBE0F902F
:105610001F9018951F920F920FB60F9211242F937F
:105620003F934F935F936F937F938F939F93AF932A
:10563000BF93CF93DF93EF93FF93C091E900CF70B7
:105640008091EC00D82FD17080FDD0E81092E90055
:105650008091F000877F8093F00078940E944E2B19
:105660001092E9008091F00088608093F000CD2BCB
:10567000CF70C093E900FF91EF91DF91CF91BF917F
:10568000AF919F918F917F916F915F914F913F91DA
:105690002F910F900FBE0F901F9018951F93CF93CF
:1056A000DF93CDB7DEB7AA970FB6F894DEBF0FBE73
:1056B000CDBFEBEEF2E08091F100819322E0E33F79
:1056C000F207C9F70E94BB268091E80083FF2EC134
:1056D0008091EB029091EC02492F50E04A30510545
:1056E00008F024C1FA01E857FF4F0C942E2D8038A2
:1056F00021F0823809F01AC108C08091E702909128
:10570000E802992389F082600FC08091EF028F70C8
:10571000873008F00BC18093E9008091EB0085FB96
:10572000882780F91092E9009091E800977F909384
:10573000E8008093F1001092F100D1C0282F2D7F56
:1057400009F0F4C0882319F0823061F0EFC0809135
:10575000ED02813009F0EAC0933009F080E08093D7
:10576000E8022EC08091ED0281112AC08091EF02E3
:105770008F702FEF280F263008F0D8C08093E900F3
:105780002091EB0020FF1CC0933021F48091EB00AE
:10579000806214C09091EB0090619093EB0021E047
:1057A00030E0A90102C0440F551F8A95E2F74093EB
:1057B000EA001092EA008091EB0088608093EB0091
:1057C0001092E9008091E800877F8093E8000E94B2
:1057D0006B29ACC08111AAC01091ED021F77809196
:1057E000E3008078812B8093E3008091E800877F3D
:1057F0008093E8000E946B298091E80080FFFCCF35
:105800008091E30080688093E300111102C082E080
:1058100001C083E08093EA0289C08058823008F09A
:1058200085C08091ED029091EE028C3D53E095078A
:1058300079F583E08A838AE289834FB7F894DE01A1
:10584000139620E03EE051E2E32FF0E05093570042
:10585000E49120FF03C0E295EF703F5FEF708E2F61
:1058600090E0EA3010F0C79601C0C0968D939D93EA
:105870002F5F243149F74FBF8091E800877F8093E5
:10588000E8006AE270E0CE0101960E94772816C017
:105890006091EF027091F002AE014F5F5F4F0E9486
:1058A000BB27BC01892B09F441C09091E800977F88
:1058B0009093E80089819A810E94D5288091E80020
:1058C0008B778093E80032C0803881F58091E800C2
:1058D000877F8093E8008091E6028093F1008091B9
:1058E000E8008E7772CF811121C08091ED029091F6
:1058F000EE0299270297D4F48091E800877F809385
:10590000E8008091ED028093E6020E946B2980916D
:10591000E602811106C08091E30087FD02C081E0AC
:1059200001C084E08093EA020E94B1268091E800E1
:1059300083FF0AC08091E800877F8093E800809110
:10594000EB0080628093EB00AA960FB6F894DEBF5E
:105950000FBECDBFDF91CF911F9108950895CF93D2
:105960008091EA028823A1F0C091E900CF70909164
:10597000EC00892F817090FD80E8C82B1092E9001F
:105980008091E80083FD0E944E2BCF70C093E90008
:10599000CF910895991B79E004C0991F961708F0DC
:1059A000961B881F7A95C9F78095089587FB082E66
:1059B000062687FD819567FD61950E94CA2C0EF42D
:1059C000919507FC81950895AA1BBB1B51E107C067
:1059D000AA1FBB1FA617B70710F0A61BB70B881F7F
:1059E000991F5A95A9F780959095BC01CD0108950E
:1059F00097FB072E16F4009407D077FD09D00E947C
:105A0000E42C07FC05D03EF4909581959F4F0895B6
:105A1000709561957F4F0895A1E21A2EAA1BBB1BBA
:105A2000FD010DC0AA1FBB1FEE1FFF1FA217B3076A
:105A3000E407F50720F0A21BB30BE40BF50B661F80
:105A4000771F881F991F1A9469F760957095809544
:105A500090959B01AC01BD01CF010895EE0FFF1F92
:105A60000590F491E02D09940E943C2D332312F40B
:105A70008A1B9B0B0C944D2DA29FB001B39FC001BC
:105A8000A39F700D811D1124911DB29F700D811D6A
:105A90001124911D08950E943C2DB7FF0895821B8B
:105AA000930B08950E943C2DA59F900DB49F900DDF
:105AB000A49F800D911D11240895B7FF0C94522DC1
:105AC0000E94522D821B930B08958F929F92AF924A
:105AD000BF92CF92DF92EF92FF92CF93DF93EC01D0
